{
  "_format": "hh-sol-artifact-1",
  "contractName": "CO2ken",
  "sourceName": "contracts/CO2ken.sol",
  "abi": [
    {
      "inputs": [],
      "stateMutability": "nonpayable",
      "type": "constructor"
    },
    {
      "inputs": [
        {
          "internalType": "address",
          "name": "spender",
          "type": "address"
        },
        {
          "internalType": "uint256",
          "name": "allowance",
          "type": "uint256"
        },
        {
          "internalType": "uint256",
          "name": "needed",
          "type": "uint256"
        }
      ],
      "name": "ERC20InsufficientAllowance",
      "type": "error"
    },
    {
      "inputs": [
        {
          "internalType": "address",
          "name": "sender",
          "type": "address"
        },
        {
          "internalType": "uint256",
          "name": "balance",
          "type": "uint256"
        },
        {
          "internalType": "uint256",
          "name": "needed",
          "type": "uint256"
        }
      ],
      "name": "ERC20InsufficientBalance",
      "type": "error"
    },
    {
      "inputs": [
        {
          "internalType": "address",
          "name": "approver",
          "type": "address"
        }
      ],
      "name": "ERC20InvalidApprover",
      "type": "error"
    },
    {
      "inputs": [
        {
          "internalType": "address",
          "name": "receiver",
          "type": "address"
        }
      ],
      "name": "ERC20InvalidReceiver",
      "type": "error"
    },
    {
      "inputs": [
        {
          "internalType": "address",
          "name": "sender",
          "type": "address"
        }
      ],
      "name": "ERC20InvalidSender",
      "type": "error"
    },
    {
      "inputs": [
        {
          "internalType": "address",
          "name": "spender",
          "type": "address"
        }
      ],
      "name": "ERC20InvalidSpender",
      "type": "error"
    },
    {
      "inputs": [
        {
          "internalType": "address",
          "name": "owner",
          "type": "address"
        }
      ],
      "name": "OwnableInvalidOwner",
      "type": "error"
    },
    {
      "inputs": [
        {
          "internalType": "address",
          "name": "account",
          "type": "address"
        }
      ],
      "name": "OwnableUnauthorizedAccount",
      "type": "error"
    },
    {
      "anonymous": false,
      "inputs": [
        {
          "indexed": true,
          "internalType": "address",
          "name": "owner",
          "type": "address"
        },
        {
          "indexed": true,
          "internalType": "address",
          "name": "spender",
          "type": "address"
        },
        {
          "indexed": false,
          "internalType": "uint256",
          "name": "value",
          "type": "uint256"
        }
      ],
      "name": "Approval",
      "type": "event"
    },
    {
      "anonymous": false,
      "inputs": [
        {
          "indexed": true,
          "internalType": "address",
          "name": "holder",
          "type": "address"
        },
        {
          "indexed": false,
          "internalType": "bool",
          "name": "verified",
          "type": "bool"
        }
      ],
      "name": "CreditVerified",
      "type": "event"
    },
    {
      "anonymous": false,
      "inputs": [
        {
          "indexed": true,
          "internalType": "address",
          "name": "to",
          "type": "address"
        },
        {
          "indexed": false,
          "internalType": "uint256",
          "name": "amount",
          "type": "uint256"
        },
        {
          "indexed": false,
          "internalType": "string",
          "name": "projectId",
          "type": "string"
        },
        {
          "indexed": false,
          "internalType": "string",
          "name": "vintage",
          "type": "string"
        },
        {
          "indexed": false,
          "internalType": "string",
          "name": "certifier",
          "type": "string"
        }
      ],
      "name": "CreditsMinted",
      "type": "event"
    },
    {
      "anonymous": false,
      "inputs": [
        {
          "indexed": true,
          "internalType": "address",
          "name": "from",
          "type": "address"
        },
        {
          "indexed": false,
          "internalType": "uint256",
          "name": "amount",
          "type": "uint256"
        },
        {
          "indexed": false,
          "internalType": "string",
          "name": "reason",
          "type": "string"
        }
      ],
      "name": "CreditsRetired",
      "type": "event"
    },
    {
      "anonymous": false,
      "inputs": [
        {
          "indexed": false,
          "internalType": "uint256",
          "name": "id",
          "type": "uint256"
        }
      ],
      "name": "ListingCancelled",
      "type": "event"
    },
    {
      "anonymous": false,
      "inputs": [
        {
          "indexed": false,
          "internalType": "uint256",
          "name": "id",
          "type": "uint256"
        },
        {
          "indexed": false,
          "internalType": "address",
          "name": "seller",
          "type": "address"
        },
        {
          "indexed": false,
          "internalType": "uint256",
          "name": "amount",
          "type": "uint256"
        },
        {
          "indexed": false,
          "internalType": "uint256",
          "name": "pricePerToken",
          "type": "uint256"
        }
      ],
      "name": "ListingCreated",
      "type": "event"
    },
    {
      "anonymous": false,
      "inputs": [
        {
          "indexed": false,
          "internalType": "uint256",
          "name": "id",
          "type": "uint256"
        },
        {
          "indexed": false,
          "internalType": "address",
          "name": "buyer",
          "type": "address"
        },
        {
          "indexed": false,
          "internalType": "uint256",
          "name": "amount",
          "type": "uint256"
        },
        {
          "indexed": false,
          "internalType": "uint256",
          "name": "totalPrice",
          "type": "uint256"
        }
      ],
      "name": "ListingPurchased",
      "type": "event"
    },
    {
      "anonymous": false,
      "inputs": [
        {
          "indexed": true,
          "internalType": "address",
          "name": "previousOwner",
          "type": "address"
        },
        {
          "indexed": true,
          "internalType": "address",
          "name": "newOwner",
          "type": "address"
        }
      ],
      "name": "OwnershipTransferred",
      "type": "event"
    },
    {
      "anonymous": false,
      "inputs": [
        {
          "indexed": true,
          "internalType": "address",
          "name": "from",
          "type": "address"
        },
        {
          "indexed": true,
          "internalType": "address",
          "name": "to",
          "type": "address"
        },
        {
          "indexed": false,
          "internalType": "uint256",
          "name": "value",
          "type": "uint256"
        }
      ],
      "name": "Transfer",
      "type": "event"
    },
    {
      "inputs": [
        {
          "internalType": "address",
          "name": "owner",
          "type": "address"
        },
        {
          "internalType": "address",
          "name": "spender",
          "type": "address"
        }
      ],
      "name": "allowance",
      "outputs": [
        {
          "internalType": "uint256",
          "name": "",
          "type": "uint256"
        }
      ],
      "stateMutability": "view",
      "type": "function"
    },
    {
      "inputs": [
        {
          "internalType": "address",
          "name": "spender",
          "type": "address"
        },
        {
          "internalType": "uint256",
          "name": "value",
          "type": "uint256"
        }
      ],
      "name": "approve",
      "outputs": [
        {
          "internalType": "bool",
          "name": "",
          "type": "bool"
        }
      ],
      "stateMutability": "nonpayable",
      "type": "function"
    },
    {
      "inputs": [
        {
          "internalType": "address",
          "name": "account",
          "type": "address"
        }
      ],
      "name": "balanceOf",
      "outputs": [
        {
          "internalType": "uint256",
          "name": "",
          "type": "uint256"
        }
      ],
      "stateMutability": "view",
      "type": "function"
    },
    {
      "inputs": [
        {
          "internalType": "uint256",
          "name": "listingId",
          "type": "uint256"
        }
      ],
      "name": "buyListing",
      "outputs": [],
      "stateMutability": "payable",
      "type": "function"
    },
    {
      "inputs": [
        {
          "internalType": "uint256",
          "name": "listingId",
          "type": "uint256"
        }
      ],
      "name": "cancelListing",
      "outputs": [],
      "stateMutability": "nonpayable",
      "type": "function"
    },
    {
      "inputs": [
        {
          "internalType": "uint256",
          "name": "amount",
          "type": "uint256"
        },
        {
          "internalType": "uint256",
          "name": "pricePerToken",
          "type": "uint256"
        }
      ],
      "name": "createListing",
      "outputs": [],
      "stateMutability": "nonpayable",
      "type": "function"
    },
    {
      "inputs": [
        {
          "internalType": "address",
          "name": "",
          "type": "address"
        }
      ],
      "name": "creditInfo",
      "outputs": [
        {
          "internalType": "string",
          "name": "projectId",
          "type": "string"
        },
        {
          "internalType": "string",
          "name": "vintage",
          "type": "string"
        },
        {
          "internalType": "string",
          "name": "certifier",
          "type": "string"
        },
        {
          "internalType": "bool",
          "name": "verified",
          "type": "bool"
        }
      ],
      "stateMutability": "view",
      "type": "function"
    },
    {
      "inputs": [],
      "name": "decimals",
      "outputs": [
        {
          "internalType": "uint8",
          "name": "",
          "type": "uint8"
        }
      ],
      "stateMutability": "pure",
      "type": "function"
    },
    {
      "inputs": [
        {
          "internalType": "uint256",
          "name": "",
          "type": "uint256"
        }
      ],
      "name": "listings",
      "outputs": [
        {
          "internalType": "uint256",
          "name": "id",
          "type": "uint256"
        },
        {
          "internalType": "address",
          "name": "seller",
          "type": "address"
        },
        {
          "internalType": "uint256",
          "name": "amount",
          "type": "uint256"
        },
        {
          "internalType": "uint256",
          "name": "pricePerToken",
          "type": "uint256"
        },
        {
          "internalType": "bool",
          "name": "active",
          "type": "bool"
        }
      ],
      "stateMutability": "view",
      "type": "function"
    },
    {
      "inputs": [
        {
          "internalType": "address",
          "name": "to",
          "type": "address"
        },
        {
          "internalType": "uint256",
          "name": "amount",
          "type": "uint256"
        },
        {
          "internalType": "string",
          "name": "projectId",
          "type": "string"
        },
        {
          "internalType": "string",
          "name": "vintage",
          "type": "string"
        },
        {
          "internalType": "string",
          "name": "certifier",
          "type": "string"
        }
      ],
      "name": "mintCredits",
      "outputs": [],
      "stateMutability": "nonpayable",
      "type": "function"
    },
    {
      "inputs": [],
      "name": "name",
      "outputs": [
        {
          "internalType": "string",
          "name": "",
          "type": "string"
        }
      ],
      "stateMutability": "view",
      "type": "function"
    },
    {
      "inputs": [],
      "name": "nextListingId",
      "outputs": [
        {
          "internalType": "uint256",
          "name": "",
          "type": "uint256"
        }
      ],
      "stateMutability": "view",
      "type": "function"
    },
    {
      "inputs": [],
      "name": "owner",
      "outputs": [
        {
          "internalType": "address",
          "name": "",
          "type": "address"
        }
      ],
      "stateMutability": "view",
      "type": "function"
    },
    {
      "inputs": [],
      "name": "renounceOwnership",
      "outputs": [],
      "stateMutability": "nonpayable",
      "type": "function"
    },
    {
      "inputs": [
        {
          "internalType": "uint256",
          "name": "amount",
          "type": "uint256"
        },
        {
          "internalType": "string",
          "name": "reason",
          "type": "string"
        }
      ],
      "name": "retireCredits",
      "outputs": [],
      "stateMutability": "nonpayable",
      "type": "function"
    },
    {
      "inputs": [],
      "name": "symbol",
      "outputs": [
        {
          "internalType": "string",
          "name": "",
          "type": "string"
        }
      ],
      "stateMutability": "view",
      "type": "function"
    },
    {
      "inputs": [],
      "name": "totalSupply",
      "outputs": [
        {
          "internalType": "uint256",
          "name": "",
          "type": "uint256"
        }
      ],
      "stateMutability": "view",
      "type": "function"
    },
    {
      "inputs": [
        {
          "internalType": "address",
          "name": "to",
          "type": "address"
        },
        {
          "internalType": "uint256",
          "name": "value",
          "type": "uint256"
        }
      ],
      "name": "transfer",
      "outputs": [
        {
          "internalType": "bool",
          "name": "",
          "type": "bool"
        }
      ],
      "stateMutability": "nonpayable",
      "type": "function"
    },
    {
      "inputs": [
        {
          "internalType": "address",
          "name": "from",
          "type": "address"
        },
        {
          "internalType": "address",
          "name": "to",
          "type": "address"
        },
        {
          "internalType": "uint256",
          "name": "value",
          "type": "uint256"
        }
      ],
      "name": "transferFrom",
      "outputs": [
        {
          "internalType": "bool",
          "name": "",
          "type": "bool"
        }
      ],
      "stateMutability": "nonpayable",
      "type": "function"
    },
    {
      "inputs": [
        {
          "internalType": "address",
          "name": "newOwner",
          "type": "address"
        }
      ],
      "name": "transferOwnership",
      "outputs": [],
      "stateMutability": "nonpayable",
      "type": "function"
    },
    {
      "inputs": [
        {
          "internalType": "address",
          "name": "holder",
          "type": "address"
        },
        {
          "internalType": "bool",
          "name": "isVerified",
          "type": "bool"
        }
      ],
      "name": "verifyCredit",
      "outputs": [],
      "stateMutability": "nonpayable",
      "type": "function"
    }
  ],
  "bytecode": "0x608060405234801561001057600080fd5b50336040518060400160405280600d81526020017f436172626f6e20437265646974000000000000000000000000000000000000008152506040518060400160405280600481526020017f53434f3200000000000000000000000000000000000000000000000000000000815250816003908161008d919061043d565b50806004908161009d919061043d565b505050600073ffffffffffffffffffffffffffffffffffffffff168173ffffffffffffffffffffffffffffffffffffffff16036101125760006040517f1e4fbdf70000000000000000000000000000000000000000000000000000000081526004016101099190610550565b60405180910390fd5b6101218161012760201b60201c565b5061056b565b6000600560009054906101000a900473ffffffffffffffffffffffffffffffffffffffff16905081600560006101000a81548173ffffffffffffffffffffffffffffffffffffffff021916908373ffffffffffffffffffffffffffffffffffffffff1602179055508173ffffffffffffffffffffffffffffffffffffffff168173ffffffffffffffffffffffffffffffffffffffff167f8be0079c531659141344cd1fd0a4f28419497f9722a3daafe3b4186f6b6457e060405160405180910390a35050565b600081519050919050565b7f4e487b7100000000000000000000000000000000000000000000000000000000600052604160045260246000fd5b7f4e487b7100000000000000000000000000000000000000000000000000000000600052602260045260246000fd5b6000600282049050600182168061026e57607f821691505b60208210810361028157610280610227565b5b50919050565b60008190508160005260206000209050919050565b60006020601f8301049050919050565b600082821b905092915050565b6000600883026102e97fffffffffffffffffffffffffffffffffffffffffffffffffffffffffffffffff826102ac565b6102f386836102ac565b95508019841693508086168417925050509392505050565b6000819050919050565b6000819050919050565b600061033a6103356103308461030b565b610315565b61030b565b9050919050565b6000819050919050565b6103548361031f565b61036861036082610341565b8484546102b9565b825550505050565b600090565b61037d610370565b61038881848461034b565b505050565b5b818110156103ac576103a1600082610375565b60018101905061038e565b5050565b601f8211156103f1576103c281610287565b6103cb8461029c565b810160208510156103da578190505b6103ee6103e68561029c565b83018261038d565b50505b505050565b600082821c905092915050565b6000610414600019846008026103f6565b1980831691505092915050565b600061042d8383610403565b9150826002028217905092915050565b610446826101ed565b67ffffffffffffffff81111561045f5761045e6101f8565b5b6104698254610256565b6104748282856103b0565b600060209050601f8311600181146104a75760008415610495578287015190505b61049f8582610421565b865550610507565b601f1984166104b586610287565b60005b828110156104dd578489015182556001820191506020850194506020810190506104b8565b868310156104fa57848901516104f6601f891682610403565b8355505b6001600288020188555050505b505050505050565b600073ffffffffffffffffffffffffffffffffffffffff82169050919050565b600061053a8261050f565b9050919050565b61054a8161052f565b82525050565b60006020820190506105656000830184610541565b92915050565b6128848061057a6000396000f3fe60806040526004361061012a5760003560e01c80638da5cb5b116100ab578063a9059cbb1161006f578063a9059cbb146103bd578063aaccf1ec146103fa578063d5b09cb714610425578063dd62ed3e14610465578063de74e57b146104a2578063f2fde38b146104e35761012a565b80638da5cb5b146102ec5780639424d0e21461031757806395d89b4114610340578063a45d4ff01461036b578063a79123a9146103945761012a565b8063313ce567116100f2578063313ce567146102285780634884f4591461025357806370a082311461026f578063715018a6146102ac57806389b9ac7f146102c35761012a565b806306fdde031461012f578063095ea7b31461015a57806318160ddd1461019757806323b872dd146101c2578063305a67a8146101ff575b600080fd5b34801561013b57600080fd5b5061014461050c565b6040516101519190611a84565b60405180910390f35b34801561016657600080fd5b50610181600480360381019061017c9190611b4e565b61059e565b60405161018e9190611ba9565b60405180910390f35b3480156101a357600080fd5b506101ac6105c1565b6040516101b99190611bd3565b60405180910390f35b3480156101ce57600080fd5b506101e960048036038101906101e49190611bee565b6105cb565b6040516101f69190611ba9565b60405180910390f35b34801561020b57600080fd5b5061022660048036038101906102219190611c41565b6105fa565b005b34801561023457600080fd5b5061023d6107bc565b60405161024a9190611c8a565b60405180910390f35b61026d60048036038101906102689190611c41565b6107c5565b005b34801561027b57600080fd5b5061029660048036038101906102919190611ca5565b610964565b6040516102a39190611bd3565b60405180910390f35b3480156102b857600080fd5b506102c16109ac565b005b3480156102cf57600080fd5b506102ea60048036038101906102e59190611e07565b6109c0565b005b3480156102f857600080fd5b50610301610a1e565b60405161030e9190611e72565b60405180910390f35b34801561032357600080fd5b5061033e60048036038101906103399190611eb9565b610a48565b005b34801561034c57600080fd5b50610355610afc565b6040516103629190611a84565b60405180910390f35b34801561037757600080fd5b50610392600480360381019061038d9190611ef9565b610b8e565b005b3480156103a057600080fd5b506103bb60048036038101906103b69190611fc8565b610cc3565b005b3480156103c957600080fd5b506103e460048036038101906103df9190611b4e565b610e96565b6040516103f19190611ba9565b60405180910390f35b34801561040657600080fd5b5061040f610eb9565b60405161041c9190611bd3565b60405180910390f35b34801561043157600080fd5b5061044c60048036038101906104479190611ca5565b610ebf565b60405161045c9493929190612008565b60405180910390f35b34801561047157600080fd5b5061048c60048036038101906104879190612062565b611094565b6040516104999190611bd3565b60405180910390f35b3480156104ae57600080fd5b506104c960048036038101906104c49190611c41565b61111b565b6040516104da9594939291906120a2565b60405180910390f35b3480156104ef57600080fd5b5061050a60048036038101906105059190611ca5565b61117e565b005b60606003805461051b90612124565b80601f016020809104026020016040519081016040528092919081815260200182805461054790612124565b80156105945780601f1061056957610100808354040283529160200191610594565b820191906000526020600020905b81548152906001019060200180831161057757829003601f168201915b5050505050905090565b6000806105a9611204565b90506105b681858561120c565b600191505092915050565b6000600254905090565b6000806105d6611204565b90506105e385828561121e565b6105ee8585856112b3565b60019150509392505050565b60006008600083815260200190815260200160002090508060040160009054906101000a900460ff16610662576040517f08c379a0000000000000000000000000000000000000000000000000000000008152600401610659906121a1565b60405180910390fd5b3373ffffffffffffffffffffffffffffffffffffffff168160010160009054906101000a900473ffffffffffffffffffffffffffffffffffffffff1673ffffffffffffffffffffffffffffffffffffffff1614806106f257506106c3610a1e565b73ffffffffffffffffffffffffffffffffffffffff163373ffffffffffffffffffffffffffffffffffffffff16145b610731576040517f08c379a00000000000000000000000000000000000000000000000000000000081526004016107289061220d565b60405180910390fd5b60008160040160006101000a81548160ff021916908315150217905550610781308260010160009054906101000a900473ffffffffffffffffffffffffffffffffffffffff1683600201546112b3565b7f411aee90354c51b1b04cd563fcab2617142a9d50da19232d888547c8a1b7fd8a826040516107b09190611bd3565b60405180910390a15050565b60006006905090565b60006008600083815260200190815260200160002090508060040160009054906101000a900460ff1661082d576040517f08c379a000000000000000000000000000000000000000000000000000000000815260040161082490612279565b60405180910390fd5b60008160030154826002015461084391906122c8565b9050803414610887576040517f08c379a000000000000000000000000000000000000000000000000000000000815260040161087e90612356565b60405180910390fd5b60008260040160006101000a81548160ff0219169083151502179055506108b3303384600201546112b3565b8160010160009054906101000a900473ffffffffffffffffffffffffffffffffffffffff1673ffffffffffffffffffffffffffffffffffffffff166108fc349081150290604051600060405180830381858888f1935050505015801561091d573d6000803e3d6000fd5b507f0db6cd6881fc0453b2d01f52eb5a16417707659f245732abc10f847426e3525d83338460020154846040516109579493929190612376565b60405180910390a1505050565b60008060008373ffffffffffffffffffffffffffffffffffffffff1673ffffffffffffffffffffffffffffffffffffffff168152602001908152602001600020549050919050565b6109b46113a7565b6109be600061142e565b565b6109ca33836114f4565b3373ffffffffffffffffffffffffffffffffffffffff167f554ae59b59830600d0638ca7a742c4d11a7030f32a6885c3f2bea19ca1d26ecb8383604051610a129291906123bb565b60405180910390a25050565b6000600560009054906101000a900473ffffffffffffffffffffffffffffffffffffffff16905090565b610a506113a7565b80600660008473ffffffffffffffffffffffffffffffffffffffff1673ffffffffffffffffffffffffffffffffffffffff16815260200190815260200160002060030160006101000a81548160ff0219169083151502179055508173ffffffffffffffffffffffffffffffffffffffff167f336e0c64aa3462337a47f5df109e1cd00c7872fa93024dfe40ffab44058a359582604051610af09190611ba9565b60405180910390a25050565b606060048054610b0b90612124565b80601f0160208091040260200160405190810160405280929190818152602001828054610b3790612124565b8015610b845780601f10610b5957610100808354040283529160200191610b84565b820191906000526020600020905b815481529060010190602001808311610b6757829003601f168201915b5050505050905090565b610b966113a7565b610ba08585611576565b604051806080016040528084815260200183815260200182815260200160001515815250600660008773ffffffffffffffffffffffffffffffffffffffff1673ffffffffffffffffffffffffffffffffffffffff1681526020019081526020016000206000820151816000019081610c189190612597565b506020820151816001019081610c2e9190612597565b506040820151816002019081610c449190612597565b5060608201518160030160006101000a81548160ff0219169083151502179055509050508473ffffffffffffffffffffffffffffffffffffffff167f5e8e4cf0cab3761fab0519ef540368fc196a0f398640bbe084a573b4c3d8cf5885858585604051610cb49493929190612669565b60405180910390a25050505050565b81610ccd33610964565b1015610d0e576040517f08c379a0000000000000000000000000000000000000000000000000000000008152600401610d059061270f565b60405180910390fd5b60008111610d51576040517f08c379a0000000000000000000000000000000000000000000000000000000008152600401610d489061277b565b60405180910390fd5b610d5c3330846112b3565b6040518060a0016040528060075481526020013373ffffffffffffffffffffffffffffffffffffffff168152602001838152602001828152602001600115158152506008600060075481526020019081526020016000206000820151816000015560208201518160010160006101000a81548173ffffffffffffffffffffffffffffffffffffffff021916908373ffffffffffffffffffffffffffffffffffffffff160217905550604082015181600201556060820151816003015560808201518160040160006101000a81548160ff0219169083151502179055509050507f12dc294b81a709d694b1337a350a12a00076c19a77a25aab67a5f0c07e0f164d600754338484604051610e729493929190612376565b60405180910390a160076000815480929190610e8d9061279b565b91905055505050565b600080610ea1611204565b9050610eae8185856112b3565b600191505092915050565b60075481565b6006602052806000526040600020600091509050806000018054610ee290612124565b80601f0160208091040260200160405190810160405280929190818152602001828054610f0e90612124565b8015610f5b5780601f10610f3057610100808354040283529160200191610f5b565b820191906000526020600020905b815481529060010190602001808311610f3e57829003601f168201915b505050505090806001018054610f7090612124565b80601f0160208091040260200160405190810160405280929190818152602001828054610f9c90612124565b8015610fe95780601f10610fbe57610100808354040283529160200191610fe9565b820191906000526020600020905b815481529060010190602001808311610fcc57829003601f168201915b505050505090806002018054610ffe90612124565b80601f016020809104026020016040519081016040528092919081815260200182805461102a90612124565b80156110775780601f1061104c57610100808354040283529160200191611077565b820191906000526020600020905b81548152906001019060200180831161105a57829003601f168201915b5050505050908060030160009054906101000a900460ff16905084565b6000600160008473ffffffffffffffffffffffffffffffffffffffff1673ffffffffffffffffffffffffffffffffffffffff16815260200190815260200160002060008373ffffffffffffffffffffffffffffffffffffffff1673ffffffffffffffffffffffffffffffffffffffff16815260200190815260200160002054905092915050565b60086020528060005260406000206000915090508060000154908060010160009054906101000a900473ffffffffffffffffffffffffffffffffffffffff16908060020154908060030154908060040160009054906101000a900460ff16905085565b6111866113a7565b600073ffffffffffffffffffffffffffffffffffffffff168173ffffffffffffffffffffffffffffffffffffffff16036111f85760006040517f1e4fbdf70000000000000000000000000000000000000000000000000000000081526004016111ef9190611e72565b60405180910390fd5b6112018161142e565b50565b600033905090565b61121983838360016115f8565b505050565b600061122a8484611094565b90507fffffffffffffffffffffffffffffffffffffffffffffffffffffffffffffffff8110156112ad578181101561129d578281836040517ffb8f41b2000000000000000000000000000000000000000000000000000000008152600401611294939291906127e3565b60405180910390fd5b6112ac848484840360006115f8565b5b50505050565b600073ffffffffffffffffffffffffffffffffffffffff168373ffffffffffffffffffffffffffffffffffffffff16036113255760006040517f96c6fd1e00000000000000000000000000000000000000000000000000000000815260040161131c9190611e72565b60405180910390fd5b600073ffffffffffffffffffffffffffffffffffffffff168273ffffffffffffffffffffffffffffffffffffffff16036113975760006040517fec442f0500000000000000000000000000000000000000000000000000000000815260040161138e9190611e72565b60405180910390fd5b6113a28383836117cf565b505050565b6113af611204565b73ffffffffffffffffffffffffffffffffffffffff166113cd610a1e565b73ffffffffffffffffffffffffffffffffffffffff161461142c576113f0611204565b6040517f118cdaa70000000000000000000000000000000000000000000000000000000081526004016114239190611e72565b60405180910390fd5b565b6000600560009054906101000a900473ffffffffffffffffffffffffffffffffffffffff16905081600560006101000a81548173ffffffffffffffffffffffffffffffffffffffff021916908373ffffffffffffffffffffffffffffffffffffffff1602179055508173ffffffffffffffffffffffffffffffffffffffff168173ffffffffffffffffffffffffffffffffffffffff167f8be0079c531659141344cd1fd0a4f28419497f9722a3daafe3b4186f6b6457e060405160405180910390a35050565b600073ffffffffffffffffffffffffffffffffffffffff168273ffffffffffffffffffffffffffffffffffffffff16036115665760006040517f96c6fd1e00000000000000000000000000000000000000000000000000000000815260040161155d9190611e72565b60405180910390fd5b611572826000836117cf565b5050565b600073ffffffffffffffffffffffffffffffffffffffff168273ffffffffffffffffffffffffffffffffffffffff16036115e85760006040517fec442f050000000000000000000000000000000000000000000000000000000081526004016115df9190611e72565b60405180910390fd5b6115f4600083836117cf565b5050565b600073ffffffffffffffffffffffffffffffffffffffff168473ffffffffffffffffffffffffffffffffffffffff160361166a5760006040517fe602df050000000000000000000000000000000000000000000000000000000081526004016116619190611e72565b60405180910390fd5b600073ffffffffffffffffffffffffffffffffffffffff168373ffffffffffffffffffffffffffffffffffffffff16036116dc5760006040517f94280d620000000000000000000000000000000000000000000000000000000081526004016116d39190611e72565b60405180910390fd5b81600160008673ffffffffffffffffffffffffffffffffffffffff1673ffffffffffffffffffffffffffffffffffffffff16815260200190815260200160002060008573ffffffffffffffffffffffffffffffffffffffff1673ffffffffffffffffffffffffffffffffffffffff1681526020019081526020016000208190555080156117c9578273ffffffffffffffffffffffffffffffffffffffff168473ffffffffffffffffffffffffffffffffffffffff167f8c5be1e5ebec7d5bd14f71427d1e84f3dd0314c0f7b2291e5b200ac8c7c3b925846040516117c09190611bd3565b60405180910390a35b50505050565b600073ffffffffffffffffffffffffffffffffffffffff168373ffffffffffffffffffffffffffffffffffffffff1603611821578060026000828254611815919061281a565b925050819055506118f4565b60008060008573ffffffffffffffffffffffffffffffffffffffff1673ffffffffffffffffffffffffffffffffffffffff168152602001908152602001600020549050818110156118ad578381836040517fe450d38c0000000000000000000000000000000000000000000000000000000081526004016118a4939291906127e3565b60405180910390fd5b8181036000808673ffffffffffffffffffffffffffffffffffffffff1673ffffffffffffffffffffffffffffffffffffffff16815260200190815260200160002081905550505b600073ffffffffffffffffffffffffffffffffffffffff168273ffffffffffffffffffffffffffffffffffffffff160361193d578060026000828254039250508190555061198a565b806000808473ffffffffffffffffffffffffffffffffffffffff1673ffffffffffffffffffffffffffffffffffffffff168152602001908152602001600020600082825401925050819055505b8173ffffffffffffffffffffffffffffffffffffffff168373ffffffffffffffffffffffffffffffffffffffff167fddf252ad1be2c89b69c2b068fc378daa952ba7f163c4a11628f55a4df523b3ef836040516119e79190611bd3565b60405180910390a3505050565b600081519050919050565b600082825260208201905092915050565b60005b83811015611a2e578082015181840152602081019050611a13565b60008484015250505050565b6000601f19601f8301169050919050565b6000611a56826119f4565b611a6081856119ff565b9350611a70818560208601611a10565b611a7981611a3a565b840191505092915050565b60006020820190508181036000830152611a9e8184611a4b565b905092915050565b6000604051905090565b600080fd5b600080fd5b600073ffffffffffffffffffffffffffffffffffffffff82169050919050565b6000611ae582611aba565b9050919050565b611af581611ada565b8114611b0057600080fd5b50565b600081359050611b1281611aec565b92915050565b6000819050919050565b611b2b81611b18565b8114611b3657600080fd5b50565b600081359050611b4881611b22565b92915050565b60008060408385031215611b6557611b64611ab0565b5b6000611b7385828601611b03565b9250506020611b8485828601611b39565b9150509250929050565b60008115159050919050565b611ba381611b8e565b82525050565b6000602082019050611bbe6000830184611b9a565b92915050565b611bcd81611b18565b82525050565b6000602082019050611be86000830184611bc4565b92915050565b600080600060608486031215611c0757611c06611ab0565b5b6000611c1586828701611b03565b9350506020611c2686828701611b03565b9250506040611c3786828701611b39565b9150509250925092565b600060208284031215611c5757611c56611ab0565b5b6000611c6584828501611b39565b91505092915050565b600060ff82169050919050565b611c8481611c6e565b82525050565b6000602082019050611c9f6000830184611c7b565b92915050565b600060208284031215611cbb57611cba611ab0565b5b6000611cc984828501611b03565b91505092915050565b600080fd5b600080fd5b7f4e487b7100000000000000000000000000000000000000000000000000000000600052604160045260246000fd5b611d1482611a3a565b810181811067ffffffffffffffff82111715611d3357611d32611cdc565b5b80604052505050565b6000611d46611aa6565b9050611d528282611d0b565b919050565b600067ffffffffffffffff821115611d7257611d71611cdc565b5b611d7b82611a3a565b9050602081019050919050565b82818337600083830152505050565b6000611daa611da584611d57565b611d3c565b905082815260208101848484011115611dc657611dc5611cd7565b5b611dd1848285611d88565b509392505050565b600082601f830112611dee57611ded611cd2565b5b8135611dfe848260208601611d97565b91505092915050565b60008060408385031215611e1e57611e1d611ab0565b5b6000611e2c85828601611b39565b925050602083013567ffffffffffffffff811115611e4d57611e4c611ab5565b5b611e5985828601611dd9565b9150509250929050565b611e6c81611ada565b82525050565b6000602082019050611e876000830184611e63565b92915050565b611e9681611b8e565b8114611ea157600080fd5b50565b600081359050611eb381611e8d565b92915050565b60008060408385031215611ed057611ecf611ab0565b5b6000611ede85828601611b03565b9250506020611eef85828601611ea4565b9150509250929050565b600080600080600060a08688031215611f1557611f14611ab0565b5b6000611f2388828901611b03565b9550506020611f3488828901611b39565b945050604086013567ffffffffffffffff811115611f5557611f54611ab5565b5b611f6188828901611dd9565b935050606086013567ffffffffffffffff811115611f8257611f81611ab5565b5b611f8e88828901611dd9565b925050608086013567ffffffffffffffff811115611faf57611fae611ab5565b5b611fbb88828901611dd9565b9150509295509295909350565b60008060408385031215611fdf57611fde611ab0565b5b6000611fed85828601611b39565b9250506020611ffe85828601611b39565b9150509250929050565b600060808201905081810360008301526120228187611a4b565b905081810360208301526120368186611a4b565b9050818103604083015261204a8185611a4b565b90506120596060830184611b9a565b95945050505050565b6000806040838503121561207957612078611ab0565b5b600061208785828601611b03565b925050602061209885828601611b03565b9150509250929050565b600060a0820190506120b76000830188611bc4565b6120c46020830187611e63565b6120d16040830186611bc4565b6120de6060830185611bc4565b6120eb6080830184611b9a565b9695505050505050565b7f4e487b7100000000000000000000000000000000000000000000000000000000600052602260045260246000fd5b6000600282049050600182168061213c57607f821691505b60208210810361214f5761214e6120f5565b5b50919050565b7f4c697374696e6720696e61637469766500000000000000000000000000000000600082015250565b600061218b6010836119ff565b915061219682612155565b602082019050919050565b600060208201905081810360008301526121ba8161217e565b9050919050565b7f4e6f7420617574686f72697a6564000000000000000000000000000000000000600082015250565b60006121f7600e836119ff565b9150612202826121c1565b602082019050919050565b60006020820190508181036000830152612226816121ea565b9050919050565b7f416e6e6f6e636520696e61637469766500000000000000000000000000000000600082015250565b60006122636010836119ff565b915061226e8261222d565b602082019050919050565b6000602082019050818103600083015261229281612256565b9050919050565b7f4e487b7100000000000000000000000000000000000000000000000000000000600052601160045260246000fd5b60006122d382611b18565b91506122de83611b18565b92508282026122ec81611b18565b9150828204841483151761230357612302612299565b5b5092915050565b7f45544820696e636f727265637400000000000000000000000000000000000000600082015250565b6000612340600d836119ff565b915061234b8261230a565b602082019050919050565b6000602082019050818103600083015261236f81612333565b9050919050565b600060808201905061238b6000830187611bc4565b6123986020830186611e63565b6123a56040830185611bc4565b6123b26060830184611bc4565b95945050505050565b60006040820190506123d06000830185611bc4565b81810360208301526123e28184611a4b565b90509392505050565b60008190508160005260206000209050919050565b60006020601f8301049050919050565b600082821b905092915050565b60006008830261244d7fffffffffffffffffffffffffffffffffffffffffffffffffffffffffffffffff82612410565b6124578683612410565b95508019841693508086168417925050509392505050565b6000819050919050565b600061249461248f61248a84611b18565b61246f565b611b18565b9050919050565b6000819050919050565b6124ae83612479565b6124c26124ba8261249b565b84845461241d565b825550505050565b600090565b6124d76124ca565b6124e28184846124a5565b505050565b5b81811015612506576124fb6000826124cf565b6001810190506124e8565b5050565b601f82111561254b5761251c816123eb565b61252584612400565b81016020851015612534578190505b61254861254085612400565b8301826124e7565b50505b505050565b600082821c905092915050565b600061256e60001984600802612550565b1980831691505092915050565b6000612587838361255d565b9150826002028217905092915050565b6125a0826119f4565b67ffffffffffffffff8111156125b9576125b8611cdc565b5b6125c38254612124565b6125ce82828561250a565b600060209050601f83116001811461260157600084156125ef578287015190505b6125f9858261257b565b865550612661565b601f19841661260f866123eb565b60005b8281101561263757848901518255600182019150602085019450602081019050612612565b868310156126545784890151612650601f89168261255d565b8355505b6001600288020188555050505b505050505050565b600060808201905061267e6000830187611bc4565b81810360208301526126908186611a4b565b905081810360408301526126a48185611a4b565b905081810360608301526126b88184611a4b565b905095945050505050565b7f4e6f7420656e6f75676820637265646974730000000000000000000000000000600082015250565b60006126f96012836119ff565b9150612704826126c3565b602082019050919050565b60006020820190508181036000830152612728816126ec565b9050919050565b7f5072696365206d757374206265203e2030000000000000000000000000000000600082015250565b60006127656011836119ff565b91506127708261272f565b602082019050919050565b6000602082019050818103600083015261279481612758565b9050919050565b60006127a682611b18565b91507fffffffffffffffffffffffffffffffffffffffffffffffffffffffffffffffff82036127d8576127d7612299565b5b600182019050919050565b60006060820190506127f86000830186611e63565b6128056020830185611bc4565b6128126040830184611bc4565b949350505050565b600061282582611b18565b915061283083611b18565b925082820190508082111561284857612847612299565b5b9291505056fea2646970667358221220728c09a323662dab65cdf5bbcd85a58b8b636b023e91c2fb18adefc2b3db4f7364736f6c634300081c0033",
  "linkReferences": {},
  "deployedLinkReferences": {}
}