{
  "_format": "hh-sol-artifact-1",
  "contractName": "CO2ken",
  "sourceName": "contracts/CO2ken.sol",
  "abi": [
    {
      "inputs": [],
      "stateMutability": "nonpayable",
      "type": "constructor"
    },
    {
      "inputs": [
        {
          "internalType": "address",
          "name": "spender",
          "type": "address"
        },
        {
          "internalType": "uint256",
          "name": "allowance",
          "type": "uint256"
        },
        {
          "internalType": "uint256",
          "name": "needed",
          "type": "uint256"
        }
      ],
      "name": "ERC20InsufficientAllowance",
      "type": "error"
    },
    {
      "inputs": [
        {
          "internalType": "address",
          "name": "sender",
          "type": "address"
        },
        {
          "internalType": "uint256",
          "name": "balance",
          "type": "uint256"
        },
        {
          "internalType": "uint256",
          "name": "needed",
          "type": "uint256"
        }
      ],
      "name": "ERC20InsufficientBalance",
      "type": "error"
    },
    {
      "inputs": [
        {
          "internalType": "address",
          "name": "approver",
          "type": "address"
        }
      ],
      "name": "ERC20InvalidApprover",
      "type": "error"
    },
    {
      "inputs": [
        {
          "internalType": "address",
          "name": "receiver",
          "type": "address"
        }
      ],
      "name": "ERC20InvalidReceiver",
      "type": "error"
    },
    {
      "inputs": [
        {
          "internalType": "address",
          "name": "sender",
          "type": "address"
        }
      ],
      "name": "ERC20InvalidSender",
      "type": "error"
    },
    {
      "inputs": [
        {
          "internalType": "address",
          "name": "spender",
          "type": "address"
        }
      ],
      "name": "ERC20InvalidSpender",
      "type": "error"
    },
    {
      "inputs": [
        {
          "internalType": "address",
          "name": "owner",
          "type": "address"
        }
      ],
      "name": "OwnableInvalidOwner",
      "type": "error"
    },
    {
      "inputs": [
        {
          "internalType": "address",
          "name": "account",
          "type": "address"
        }
      ],
      "name": "OwnableUnauthorizedAccount",
      "type": "error"
    },
    {
      "anonymous": false,
      "inputs": [
        {
          "indexed": true,
          "internalType": "address",
          "name": "owner",
          "type": "address"
        },
        {
          "indexed": true,
          "internalType": "address",
          "name": "spender",
          "type": "address"
        },
        {
          "indexed": false,
          "internalType": "uint256",
          "name": "value",
          "type": "uint256"
        }
      ],
      "name": "Approval",
      "type": "event"
    },
    {
      "anonymous": false,
      "inputs": [
        {
          "indexed": true,
          "internalType": "address",
          "name": "holder",
          "type": "address"
        },
        {
          "indexed": false,
          "internalType": "bool",
          "name": "verified",
          "type": "bool"
        }
      ],
      "name": "CreditVerified",
      "type": "event"
    },
    {
      "anonymous": false,
      "inputs": [
        {
          "indexed": true,
          "internalType": "address",
          "name": "to",
          "type": "address"
        },
        {
          "indexed": false,
          "internalType": "uint256",
          "name": "amount",
          "type": "uint256"
        },
        {
          "indexed": false,
          "internalType": "string",
          "name": "projectId",
          "type": "string"
        },
        {
          "indexed": false,
          "internalType": "string",
          "name": "vintage",
          "type": "string"
        },
        {
          "indexed": false,
          "internalType": "string",
          "name": "certifier",
          "type": "string"
        }
      ],
      "name": "CreditsMinted",
      "type": "event"
    },
    {
      "anonymous": false,
      "inputs": [
        {
          "indexed": true,
          "internalType": "address",
          "name": "from",
          "type": "address"
        },
        {
          "indexed": false,
          "internalType": "uint256",
          "name": "amount",
          "type": "uint256"
        },
        {
          "indexed": false,
          "internalType": "string",
          "name": "reason",
          "type": "string"
        }
      ],
      "name": "CreditsRetired",
      "type": "event"
    },
    {
      "anonymous": false,
      "inputs": [
        {
          "indexed": true,
          "internalType": "uint256",
          "name": "id",
          "type": "uint256"
        }
      ],
      "name": "ListingCancelled",
      "type": "event"
    },
    {
      "anonymous": false,
      "inputs": [
        {
          "indexed": true,
          "internalType": "uint256",
          "name": "id",
          "type": "uint256"
        },
        {
          "indexed": true,
          "internalType": "address",
          "name": "seller",
          "type": "address"
        },
        {
          "indexed": false,
          "internalType": "uint256",
          "name": "amount",
          "type": "uint256"
        },
        {
          "indexed": false,
          "internalType": "uint256",
          "name": "pricePerToken",
          "type": "uint256"
        }
      ],
      "name": "ListingCreated",
      "type": "event"
    },
    {
      "anonymous": false,
      "inputs": [
        {
          "indexed": true,
          "internalType": "uint256",
          "name": "id",
          "type": "uint256"
        },
        {
          "indexed": true,
          "internalType": "address",
          "name": "buyer",
          "type": "address"
        },
        {
          "indexed": false,
          "internalType": "uint256",
          "name": "amount",
          "type": "uint256"
        },
        {
          "indexed": false,
          "internalType": "uint256",
          "name": "totalPrice",
          "type": "uint256"
        }
      ],
      "name": "ListingPurchased",
      "type": "event"
    },
    {
      "anonymous": false,
      "inputs": [
        {
          "indexed": true,
          "internalType": "address",
          "name": "previousOwner",
          "type": "address"
        },
        {
          "indexed": true,
          "internalType": "address",
          "name": "newOwner",
          "type": "address"
        }
      ],
      "name": "OwnershipTransferred",
      "type": "event"
    },
    {
      "anonymous": false,
      "inputs": [
        {
          "indexed": true,
          "internalType": "address",
          "name": "from",
          "type": "address"
        },
        {
          "indexed": true,
          "internalType": "address",
          "name": "to",
          "type": "address"
        },
        {
          "indexed": false,
          "internalType": "uint256",
          "name": "value",
          "type": "uint256"
        }
      ],
      "name": "Transfer",
      "type": "event"
    },
    {
      "stateMutability": "payable",
      "type": "fallback"
    },
    {
      "inputs": [
        {
          "internalType": "address",
          "name": "owner",
          "type": "address"
        },
        {
          "internalType": "address",
          "name": "spender",
          "type": "address"
        }
      ],
      "name": "allowance",
      "outputs": [
        {
          "internalType": "uint256",
          "name": "",
          "type": "uint256"
        }
      ],
      "stateMutability": "view",
      "type": "function"
    },
    {
      "inputs": [
        {
          "internalType": "address",
          "name": "spender",
          "type": "address"
        },
        {
          "internalType": "uint256",
          "name": "value",
          "type": "uint256"
        }
      ],
      "name": "approve",
      "outputs": [
        {
          "internalType": "bool",
          "name": "",
          "type": "bool"
        }
      ],
      "stateMutability": "nonpayable",
      "type": "function"
    },
    {
      "inputs": [
        {
          "internalType": "address",
          "name": "account",
          "type": "address"
        }
      ],
      "name": "balanceOf",
      "outputs": [
        {
          "internalType": "uint256",
          "name": "",
          "type": "uint256"
        }
      ],
      "stateMutability": "view",
      "type": "function"
    },
    {
      "inputs": [
        {
          "internalType": "uint256",
          "name": "listingId",
          "type": "uint256"
        }
      ],
      "name": "buyListing",
      "outputs": [],
      "stateMutability": "payable",
      "type": "function"
    },
    {
      "inputs": [
        {
          "internalType": "uint256",
          "name": "listingId",
          "type": "uint256"
        }
      ],
      "name": "cancelListing",
      "outputs": [],
      "stateMutability": "nonpayable",
      "type": "function"
    },
    {
      "inputs": [
        {
          "internalType": "uint256",
          "name": "amount",
          "type": "uint256"
        },
        {
          "internalType": "uint256",
          "name": "pricePerToken",
          "type": "uint256"
        }
      ],
      "name": "createListing",
      "outputs": [],
      "stateMutability": "nonpayable",
      "type": "function"
    },
    {
      "inputs": [
        {
          "internalType": "address",
          "name": "",
          "type": "address"
        }
      ],
      "name": "creditInfo",
      "outputs": [
        {
          "internalType": "string",
          "name": "projectId",
          "type": "string"
        },
        {
          "internalType": "string",
          "name": "vintage",
          "type": "string"
        },
        {
          "internalType": "string",
          "name": "certifier",
          "type": "string"
        },
        {
          "internalType": "bool",
          "name": "verified",
          "type": "bool"
        }
      ],
      "stateMutability": "view",
      "type": "function"
    },
    {
      "inputs": [],
      "name": "decimals",
      "outputs": [
        {
          "internalType": "uint8",
          "name": "",
          "type": "uint8"
        }
      ],
      "stateMutability": "pure",
      "type": "function"
    },
    {
      "inputs": [
        {
          "internalType": "uint256",
          "name": "start",
          "type": "uint256"
        },
        {
          "internalType": "uint256",
          "name": "end",
          "type": "uint256"
        }
      ],
      "name": "getActiveListings",
      "outputs": [
        {
          "internalType": "uint256[]",
          "name": "ids",
          "type": "uint256[]"
        },
        {
          "internalType": "address[]",
          "name": "sellers",
          "type": "address[]"
        },
        {
          "internalType": "uint256[]",
          "name": "amounts",
          "type": "uint256[]"
        },
        {
          "internalType": "uint256[]",
          "name": "prices",
          "type": "uint256[]"
        },
        {
          "internalType": "bool[]",
          "name": "actives",
          "type": "bool[]"
        }
      ],
      "stateMutability": "view",
      "type": "function"
    },
    {
      "inputs": [
        {
          "internalType": "uint256",
          "name": "",
          "type": "uint256"
        }
      ],
      "name": "listings",
      "outputs": [
        {
          "internalType": "uint256",
          "name": "id",
          "type": "uint256"
        },
        {
          "internalType": "address",
          "name": "seller",
          "type": "address"
        },
        {
          "internalType": "uint256",
          "name": "amount",
          "type": "uint256"
        },
        {
          "internalType": "uint256",
          "name": "pricePerToken",
          "type": "uint256"
        },
        {
          "internalType": "bool",
          "name": "active",
          "type": "bool"
        }
      ],
      "stateMutability": "view",
      "type": "function"
    },
    {
      "inputs": [
        {
          "internalType": "address",
          "name": "to",
          "type": "address"
        },
        {
          "internalType": "uint256",
          "name": "amount",
          "type": "uint256"
        },
        {
          "internalType": "string",
          "name": "projectId",
          "type": "string"
        },
        {
          "internalType": "string",
          "name": "vintage",
          "type": "string"
        },
        {
          "internalType": "string",
          "name": "certifier",
          "type": "string"
        }
      ],
      "name": "mintCredits",
      "outputs": [],
      "stateMutability": "nonpayable",
      "type": "function"
    },
    {
      "inputs": [],
      "name": "name",
      "outputs": [
        {
          "internalType": "string",
          "name": "",
          "type": "string"
        }
      ],
      "stateMutability": "view",
      "type": "function"
    },
    {
      "inputs": [],
      "name": "nextListingId",
      "outputs": [
        {
          "internalType": "uint256",
          "name": "",
          "type": "uint256"
        }
      ],
      "stateMutability": "view",
      "type": "function"
    },
    {
      "inputs": [],
      "name": "owner",
      "outputs": [
        {
          "internalType": "address",
          "name": "",
          "type": "address"
        }
      ],
      "stateMutability": "view",
      "type": "function"
    },
    {
      "inputs": [],
      "name": "renounceOwnership",
      "outputs": [],
      "stateMutability": "nonpayable",
      "type": "function"
    },
    {
      "inputs": [
        {
          "internalType": "address payable",
          "name": "to",
          "type": "address"
        },
        {
          "internalType": "uint256",
          "name": "amount",
          "type": "uint256"
        }
      ],
      "name": "rescueETH",
      "outputs": [],
      "stateMutability": "nonpayable",
      "type": "function"
    },
    {
      "inputs": [
        {
          "internalType": "uint256",
          "name": "amount",
          "type": "uint256"
        },
        {
          "internalType": "string",
          "name": "reason",
          "type": "string"
        }
      ],
      "name": "retireCredits",
      "outputs": [],
      "stateMutability": "nonpayable",
      "type": "function"
    },
    {
      "inputs": [],
      "name": "symbol",
      "outputs": [
        {
          "internalType": "string",
          "name": "",
          "type": "string"
        }
      ],
      "stateMutability": "view",
      "type": "function"
    },
    {
      "inputs": [],
      "name": "totalSupply",
      "outputs": [
        {
          "internalType": "uint256",
          "name": "",
          "type": "uint256"
        }
      ],
      "stateMutability": "view",
      "type": "function"
    },
    {
      "inputs": [
        {
          "internalType": "address",
          "name": "to",
          "type": "address"
        },
        {
          "internalType": "uint256",
          "name": "value",
          "type": "uint256"
        }
      ],
      "name": "transfer",
      "outputs": [
        {
          "internalType": "bool",
          "name": "",
          "type": "bool"
        }
      ],
      "stateMutability": "nonpayable",
      "type": "function"
    },
    {
      "inputs": [
        {
          "internalType": "address",
          "name": "from",
          "type": "address"
        },
        {
          "internalType": "address",
          "name": "to",
          "type": "address"
        },
        {
          "internalType": "uint256",
          "name": "value",
          "type": "uint256"
        }
      ],
      "name": "transferFrom",
      "outputs": [
        {
          "internalType": "bool",
          "name": "",
          "type": "bool"
        }
      ],
      "stateMutability": "nonpayable",
      "type": "function"
    },
    {
      "inputs": [
        {
          "internalType": "address",
          "name": "newOwner",
          "type": "address"
        }
      ],
      "name": "transferOwnership",
      "outputs": [],
      "stateMutability": "nonpayable",
      "type": "function"
    },
    {
      "inputs": [
        {
          "internalType": "address",
          "name": "holder",
          "type": "address"
        },
        {
          "internalType": "bool",
          "name": "isVerified",
          "type": "bool"
        }
      ],
      "name": "verifyCredit",
      "outputs": [],
      "stateMutability": "nonpayable",
      "type": "function"
    },
    {
      "stateMutability": "payable",
      "type": "receive"
    }
  ],
  "bytecode": "0x608060405234801561001057600080fd5b50336040518060400160405280600d81526020017f436172626f6e20437265646974000000000000000000000000000000000000008152506040518060400160405280600481526020017f53434f3200000000000000000000000000000000000000000000000000000000815250816003908161008d919061043d565b50806004908161009d919061043d565b505050600073ffffffffffffffffffffffffffffffffffffffff168173ffffffffffffffffffffffffffffffffffffffff16036101125760006040517f1e4fbdf70000000000000000000000000000000000000000000000000000000081526004016101099190610550565b60405180910390fd5b6101218161012760201b60201c565b5061056b565b6000600560009054906101000a900473ffffffffffffffffffffffffffffffffffffffff16905081600560006101000a81548173ffffffffffffffffffffffffffffffffffffffff021916908373ffffffffffffffffffffffffffffffffffffffff1602179055508173ffffffffffffffffffffffffffffffffffffffff168173ffffffffffffffffffffffffffffffffffffffff167f8be0079c531659141344cd1fd0a4f28419497f9722a3daafe3b4186f6b6457e060405160405180910390a35050565b600081519050919050565b7f4e487b7100000000000000000000000000000000000000000000000000000000600052604160045260246000fd5b7f4e487b7100000000000000000000000000000000000000000000000000000000600052602260045260246000fd5b6000600282049050600182168061026e57607f821691505b60208210810361028157610280610227565b5b50919050565b60008190508160005260206000209050919050565b60006020601f8301049050919050565b600082821b905092915050565b6000600883026102e97fffffffffffffffffffffffffffffffffffffffffffffffffffffffffffffffff826102ac565b6102f386836102ac565b95508019841693508086168417925050509392505050565b6000819050919050565b6000819050919050565b600061033a6103356103308461030b565b610315565b61030b565b9050919050565b6000819050919050565b6103548361031f565b61036861036082610341565b8484546102b9565b825550505050565b600090565b61037d610370565b61038881848461034b565b505050565b5b818110156103ac576103a1600082610375565b60018101905061038e565b5050565b601f8211156103f1576103c281610287565b6103cb8461029c565b810160208510156103da578190505b6103ee6103e68561029c565b83018261038d565b50505b505050565b600082821c905092915050565b6000610414600019846008026103f6565b1980831691505092915050565b600061042d8383610403565b9150826002028217905092915050565b610446826101ed565b67ffffffffffffffff81111561045f5761045e6101f8565b5b6104698254610256565b6104748282856103b0565b600060209050601f8311600181146104a75760008415610495578287015190505b61049f8582610421565b865550610507565b601f1984166104b586610287565b60005b828110156104dd578489015182556001820191506020850194506020810190506104b8565b868310156104fa57848901516104f6601f891682610403565b8355505b6001600288020188555050505b505050505050565b600073ffffffffffffffffffffffffffffffffffffffff82169050919050565b600061053a8261050f565b9050919050565b61054a8161052f565b82525050565b60006020820190506105656000830184610541565b92915050565b6134128061057a6000396000f3fe6080604052600436106101445760003560e01c80638da5cb5b116100b6578063aaccf1ec1161006f578063aaccf1ec1461043b578063c128b23114610466578063d5b09cb7146104a7578063dd62ed3e146104e7578063de74e57b14610524578063f2fde38b1461056557610145565b80638da5cb5b1461032d5780639424d0e21461035857806395d89b4114610381578063a45d4ff0146103ac578063a79123a9146103d5578063a9059cbb146103fe57610145565b8063305a67a811610108578063305a67a814610240578063313ce567146102695780634884f4591461029457806370a08231146102b0578063715018a6146102ed57806389b9ac7f1461030457610145565b806306fdde0314610147578063095ea7b314610172578063099a04e5146101af57806318160ddd146101d857806323b872dd1461020357610145565b5b005b34801561015357600080fd5b5061015c61058e565b6040516101699190612113565b60405180910390f35b34801561017e57600080fd5b50610199600480360381019061019491906121dd565b610620565b6040516101a69190612238565b60405180910390f35b3480156101bb57600080fd5b506101d660048036038101906101d19190612291565b610643565b005b3480156101e457600080fd5b506101ed6106fc565b6040516101fa91906122e0565b60405180910390f35b34801561020f57600080fd5b5061022a600480360381019061022591906122fb565b610706565b6040516102379190612238565b60405180910390f35b34801561024c57600080fd5b506102676004803603810190610262919061234e565b610735565b005b34801561027557600080fd5b5061027e6108ed565b60405161028b9190612397565b60405180910390f35b6102ae60048036038101906102a9919061234e565b6108f6565b005b3480156102bc57600080fd5b506102d760048036038101906102d291906123b2565b610b0f565b6040516102e491906122e0565b60405180910390f35b3480156102f957600080fd5b50610302610b57565b005b34801561031057600080fd5b5061032b60048036038101906103269190612514565b610b6b565b005b34801561033957600080fd5b50610342610c0c565b60405161034f919061257f565b60405180910390f35b34801561036457600080fd5b5061037f600480360381019061037a91906125c6565b610c36565b005b34801561038d57600080fd5b50610396610cea565b6040516103a39190612113565b60405180910390f35b3480156103b857600080fd5b506103d360048036038101906103ce9190612606565b610d7c565b005b3480156103e157600080fd5b506103fc60048036038101906103f791906126d5565b610f63565b005b34801561040a57600080fd5b50610425600480360381019061042091906121dd565b61118d565b6040516104329190612238565b60405180910390f35b34801561044757600080fd5b506104506111b0565b60405161045d91906122e0565b60405180910390f35b34801561047257600080fd5b5061048d600480360381019061048891906126d5565b6111b6565b60405161049e95949392919061294f565b60405180910390f35b3480156104b357600080fd5b506104ce60048036038101906104c991906123b2565b61154e565b6040516104de94939291906129c5565b60405180910390f35b3480156104f357600080fd5b5061050e60048036038101906105099190612a1f565b611723565b60405161051b91906122e0565b60405180910390f35b34801561053057600080fd5b5061054b6004803603810190610546919061234e565b6117aa565b60405161055c959493929190612a5f565b60405180910390f35b34801561057157600080fd5b5061058c600480360381019061058791906123b2565b61180d565b005b60606003805461059d90612ae1565b80601f01602080910402602001604051908101604052809291908181526020018280546105c990612ae1565b80156106165780601f106105eb57610100808354040283529160200191610616565b820191906000526020600020905b8154815290600101906020018083116105f957829003601f168201915b5050505050905090565b60008061062b611893565b905061063881858561189b565b600191505092915050565b61064b6118ad565b60008273ffffffffffffffffffffffffffffffffffffffff168260405161067190612b43565b60006040518083038185875af1925050503d80600081146106ae576040519150601f19603f3d011682016040523d82523d6000602084013e6106b3565b606091505b50509050806106f7576040517f08c379a00000000000000000000000000000000000000000000000000000000081526004016106ee90612ba4565b60405180910390fd5b505050565b6000600254905090565b600080610711611893565b905061071e858285611934565b6107298585856119c9565b60019150509392505050565b60006008600083815260200190815260200160002090508060040160009054906101000a900460ff1661079d576040517f08c379a000000000000000000000000000000000000000000000000000000000815260040161079490612c10565b60405180910390fd5b3373ffffffffffffffffffffffffffffffffffffffff168160010160009054906101000a900473ffffffffffffffffffffffffffffffffffffffff1673ffffffffffffffffffffffffffffffffffffffff16148061082d57506107fe610c0c565b73ffffffffffffffffffffffffffffffffffffffff163373ffffffffffffffffffffffffffffffffffffffff16145b61086c576040517f08c379a000000000000000000000000000000000000000000000000000000000815260040161086390612c7c565b60405180910390fd5b60008160040160006101000a81548160ff0219169083151502179055506108bc308260010160009054906101000a900473ffffffffffffffffffffffffffffffffffffffff1683600201546119c9565b817f411aee90354c51b1b04cd563fcab2617142a9d50da19232d888547c8a1b7fd8a60405160405180910390a25050565b60006006905090565b60006008600083815260200190815260200160002090508060040160009054906101000a900460ff1661095e576040517f08c379a000000000000000000000000000000000000000000000000000000000815260040161095590612c10565b60405180910390fd5b6000816003015482600201546109749190612ccb565b90508034146109b8576040517f08c379a00000000000000000000000000000000000000000000000000000000081526004016109af90612d59565b60405180910390fd5b60008260040160006101000a81548160ff0219169083151502179055506109e4303384600201546119c9565b60008260010160009054906101000a900473ffffffffffffffffffffffffffffffffffffffff1673ffffffffffffffffffffffffffffffffffffffff1634604051610a2e90612b43565b60006040518083038185875af1925050503d8060008114610a6b576040519150601f19603f3d011682016040523d82523d6000602084013e610a70565b606091505b5050905080610ab4576040517f08c379a0000000000000000000000000000000000000000000000000000000008152600401610aab90612dc5565b60405180910390fd5b3373ffffffffffffffffffffffffffffffffffffffff16847f0db6cd6881fc0453b2d01f52eb5a16417707659f245732abc10f847426e3525d856002015485604051610b01929190612de5565b60405180910390a350505050565b60008060008373ffffffffffffffffffffffffffffffffffffffff1673ffffffffffffffffffffffffffffffffffffffff168152602001908152602001600020549050919050565b610b5f6118ad565b610b696000611abd565b565b60008211610bae576040517f08c379a0000000000000000000000000000000000000000000000000000000008152600401610ba590612e5a565b60405180910390fd5b610bb83383611b83565b3373ffffffffffffffffffffffffffffffffffffffff167f554ae59b59830600d0638ca7a742c4d11a7030f32a6885c3f2bea19ca1d26ecb8383604051610c00929190612e7a565b60405180910390a25050565b6000600560009054906101000a900473ffffffffffffffffffffffffffffffffffffffff16905090565b610c3e6118ad565b80600660008473ffffffffffffffffffffffffffffffffffffffff1673ffffffffffffffffffffffffffffffffffffffff16815260200190815260200160002060030160006101000a81548160ff0219169083151502179055508173ffffffffffffffffffffffffffffffffffffffff167f336e0c64aa3462337a47f5df109e1cd00c7872fa93024dfe40ffab44058a359582604051610cde9190612238565b60405180910390a25050565b606060048054610cf990612ae1565b80601f0160208091040260200160405190810160405280929190818152602001828054610d2590612ae1565b8015610d725780601f10610d4757610100808354040283529160200191610d72565b820191906000526020600020905b815481529060010190602001808311610d5557829003601f168201915b5050505050905090565b610d846118ad565b600073ffffffffffffffffffffffffffffffffffffffff168573ffffffffffffffffffffffffffffffffffffffff1603610df3576040517f08c379a0000000000000000000000000000000000000000000000000000000008152600401610dea90612ef6565b60405180910390fd5b60008411610e36576040517f08c379a0000000000000000000000000000000000000000000000000000000008152600401610e2d90612e5a565b60405180910390fd5b610e408585611c05565b604051806080016040528084815260200183815260200182815260200160001515815250600660008773ffffffffffffffffffffffffffffffffffffffff1673ffffffffffffffffffffffffffffffffffffffff1681526020019081526020016000206000820151816000019081610eb891906130c2565b506020820151816001019081610ece91906130c2565b506040820151816002019081610ee491906130c2565b5060608201518160030160006101000a81548160ff0219169083151502179055509050508473ffffffffffffffffffffffffffffffffffffffff167f5e8e4cf0cab3761fab0519ef540368fc196a0f398640bbe084a573b4c3d8cf5885858585604051610f549493929190613194565b60405180910390a25050505050565b81610f6d33610b0f565b1015610fae576040517f08c379a0000000000000000000000000000000000000000000000000000000008152600401610fa59061323a565b60405180910390fd5b60008211610ff1576040517f08c379a0000000000000000000000000000000000000000000000000000000008152600401610fe890612e5a565b60405180910390fd5b60008111611034576040517f08c379a000000000000000000000000000000000000000000000000000000000815260040161102b906132a6565b60405180910390fd5b61103f3330846119c9565b6040518060a0016040528060075481526020013373ffffffffffffffffffffffffffffffffffffffff168152602001838152602001828152602001600115158152506008600060075481526020019081526020016000206000820151816000015560208201518160010160006101000a81548173ffffffffffffffffffffffffffffffffffffffff021916908373ffffffffffffffffffffffffffffffffffffffff160217905550604082015181600201556060820151816003015560808201518160040160006101000a81548160ff0219169083151502179055509050503373ffffffffffffffffffffffffffffffffffffffff166007547f12dc294b81a709d694b1337a350a12a00076c19a77a25aab67a5f0c07e0f164d8484604051611169929190612de5565b60405180910390a360076000815480929190611184906132c6565b91905055505050565b600080611198611893565b90506111a58185856119c9565b600191505092915050565b60075481565b606080606080606086861115806111ce575060075486115b156111f45760608060608060608484848484995099509950995099505050505050611544565b60008787611202919061330e565b90508067ffffffffffffffff81111561121e5761121d6123e9565b5b60405190808252806020026020018201604052801561124c5781602001602082028036833780820191505090505b5095508067ffffffffffffffff811115611269576112686123e9565b5b6040519080825280602002602001820160405280156112975781602001602082028036833780820191505090505b5094508067ffffffffffffffff8111156112b4576112b36123e9565b5b6040519080825280602002602001820160405280156112e25781602001602082028036833780820191505090505b5093508067ffffffffffffffff8111156112ff576112fe6123e9565b5b60405190808252806020026020018201604052801561132d5781602001602082028036833780820191505090505b5092508067ffffffffffffffff81111561134a576113496123e9565b5b6040519080825280602002602001820160405280156113785781602001602082028036833780820191505090505b50915060008890505b87811015611541576000600860008381526020019081526020016000206040518060a0016040529081600082015481526020016001820160009054906101000a900473ffffffffffffffffffffffffffffffffffffffff1673ffffffffffffffffffffffffffffffffffffffff1673ffffffffffffffffffffffffffffffffffffffff16815260200160028201548152602001600382015481526020016004820160009054906101000a900460ff161515151581525050905060008a83611448919061330e565b9050816000015189828151811061146257611461613342565b5b602002602001018181525050816020015188828151811061148657611485613342565b5b602002602001019073ffffffffffffffffffffffffffffffffffffffff16908173ffffffffffffffffffffffffffffffffffffffff168152505081604001518782815181106114d8576114d7613342565b5b60200260200101818152505081606001518682815181106114fc576114fb613342565b5b60200260200101818152505081608001518582815181106115205761151f613342565b5b60200260200101901515908115158152505050508080600101915050611381565b50505b9295509295909350565b600660205280600052604060002060009150905080600001805461157190612ae1565b80601f016020809104026020016040519081016040528092919081815260200182805461159d90612ae1565b80156115ea5780601f106115bf576101008083540402835291602001916115ea565b820191906000526020600020905b8154815290600101906020018083116115cd57829003601f168201915b5050505050908060010180546115ff90612ae1565b80601f016020809104026020016040519081016040528092919081815260200182805461162b90612ae1565b80156116785780601f1061164d57610100808354040283529160200191611678565b820191906000526020600020905b81548152906001019060200180831161165b57829003601f168201915b50505050509080600201805461168d90612ae1565b80601f01602080910402602001604051908101604052809291908181526020018280546116b990612ae1565b80156117065780601f106116db57610100808354040283529160200191611706565b820191906000526020600020905b8154815290600101906020018083116116e957829003601f168201915b5050505050908060030160009054906101000a900460ff16905084565b6000600160008473ffffffffffffffffffffffffffffffffffffffff1673ffffffffffffffffffffffffffffffffffffffff16815260200190815260200160002060008373ffffffffffffffffffffffffffffffffffffffff1673ffffffffffffffffffffffffffffffffffffffff16815260200190815260200160002054905092915050565b60086020528060005260406000206000915090508060000154908060010160009054906101000a900473ffffffffffffffffffffffffffffffffffffffff16908060020154908060030154908060040160009054906101000a900460ff16905085565b6118156118ad565b600073ffffffffffffffffffffffffffffffffffffffff168173ffffffffffffffffffffffffffffffffffffffff16036118875760006040517f1e4fbdf700000000000000000000000000000000000000000000000000000000815260040161187e919061257f565b60405180910390fd5b61189081611abd565b50565b600033905090565b6118a88383836001611c87565b505050565b6118b5611893565b73ffffffffffffffffffffffffffffffffffffffff166118d3610c0c565b73ffffffffffffffffffffffffffffffffffffffff1614611932576118f6611893565b6040517f118cdaa7000000000000000000000000000000000000000000000000000000008152600401611929919061257f565b60405180910390fd5b565b60006119408484611723565b90507fffffffffffffffffffffffffffffffffffffffffffffffffffffffffffffffff8110156119c357818110156119b3578281836040517ffb8f41b20000000000000000000000000000000000000000000000000000000081526004016119aa93929190613371565b60405180910390fd5b6119c284848484036000611c87565b5b50505050565b600073ffffffffffffffffffffffffffffffffffffffff168373ffffffffffffffffffffffffffffffffffffffff1603611a3b5760006040517f96c6fd1e000000000000000000000000000000000000000000000000000000008152600401611a32919061257f565b60405180910390fd5b600073ffffffffffffffffffffffffffffffffffffffff168273ffffffffffffffffffffffffffffffffffffffff1603611aad5760006040517fec442f05000000000000000000000000000000000000000000000000000000008152600401611aa4919061257f565b60405180910390fd5b611ab8838383611e5e565b505050565b6000600560009054906101000a900473ffffffffffffffffffffffffffffffffffffffff16905081600560006101000a81548173ffffffffffffffffffffffffffffffffffffffff021916908373ffffffffffffffffffffffffffffffffffffffff1602179055508173ffffffffffffffffffffffffffffffffffffffff168173ffffffffffffffffffffffffffffffffffffffff167f8be0079c531659141344cd1fd0a4f28419497f9722a3daafe3b4186f6b6457e060405160405180910390a35050565b600073ffffffffffffffffffffffffffffffffffffffff168273ffffffffffffffffffffffffffffffffffffffff1603611bf55760006040517f96c6fd1e000000000000000000000000000000000000000000000000000000008152600401611bec919061257f565b60405180910390fd5b611c0182600083611e5e565b5050565b600073ffffffffffffffffffffffffffffffffffffffff168273ffffffffffffffffffffffffffffffffffffffff1603611c775760006040517fec442f05000000000000000000000000000000000000000000000000000000008152600401611c6e919061257f565b60405180910390fd5b611c8360008383611e5e565b5050565b600073ffffffffffffffffffffffffffffffffffffffff168473ffffffffffffffffffffffffffffffffffffffff1603611cf95760006040517fe602df05000000000000000000000000000000000000000000000000000000008152600401611cf0919061257f565b60405180910390fd5b600073ffffffffffffffffffffffffffffffffffffffff168373ffffffffffffffffffffffffffffffffffffffff1603611d6b5760006040517f94280d62000000000000000000000000000000000000000000000000000000008152600401611d62919061257f565b60405180910390fd5b81600160008673ffffffffffffffffffffffffffffffffffffffff1673ffffffffffffffffffffffffffffffffffffffff16815260200190815260200160002060008573ffffffffffffffffffffffffffffffffffffffff1673ffffffffffffffffffffffffffffffffffffffff168152602001908152602001600020819055508015611e58578273ffffffffffffffffffffffffffffffffffffffff168473ffffffffffffffffffffffffffffffffffffffff167f8c5be1e5ebec7d5bd14f71427d1e84f3dd0314c0f7b2291e5b200ac8c7c3b92584604051611e4f91906122e0565b60405180910390a35b50505050565b600073ffffffffffffffffffffffffffffffffffffffff168373ffffffffffffffffffffffffffffffffffffffff1603611eb0578060026000828254611ea491906133a8565b92505081905550611f83565b60008060008573ffffffffffffffffffffffffffffffffffffffff1673ffffffffffffffffffffffffffffffffffffffff16815260200190815260200160002054905081811015611f3c578381836040517fe450d38c000000000000000000000000000000000000000000000000000000008152600401611f3393929190613371565b60405180910390fd5b8181036000808673ffffffffffffffffffffffffffffffffffffffff1673ffffffffffffffffffffffffffffffffffffffff16815260200190815260200160002081905550505b600073ffffffffffffffffffffffffffffffffffffffff168273ffffffffffffffffffffffffffffffffffffffff1603611fcc5780600260008282540392505081905550612019565b806000808473ffffffffffffffffffffffffffffffffffffffff1673ffffffffffffffffffffffffffffffffffffffff168152602001908152602001600020600082825401925050819055505b8173ffffffffffffffffffffffffffffffffffffffff168373ffffffffffffffffffffffffffffffffffffffff167fddf252ad1be2c89b69c2b068fc378daa952ba7f163c4a11628f55a4df523b3ef8360405161207691906122e0565b60405180910390a3505050565b600081519050919050565b600082825260208201905092915050565b60005b838110156120bd5780820151818401526020810190506120a2565b60008484015250505050565b6000601f19601f8301169050919050565b60006120e582612083565b6120ef818561208e565b93506120ff81856020860161209f565b612108816120c9565b840191505092915050565b6000602082019050818103600083015261212d81846120da565b905092915050565b6000604051905090565b600080fd5b600080fd5b600073ffffffffffffffffffffffffffffffffffffffff82169050919050565b600061217482612149565b9050919050565b61218481612169565b811461218f57600080fd5b50565b6000813590506121a18161217b565b92915050565b6000819050919050565b6121ba816121a7565b81146121c557600080fd5b50565b6000813590506121d7816121b1565b92915050565b600080604083850312156121f4576121f361213f565b5b600061220285828601612192565b9250506020612213858286016121c8565b9150509250929050565b60008115159050919050565b6122328161221d565b82525050565b600060208201905061224d6000830184612229565b92915050565b600061225e82612149565b9050919050565b61226e81612253565b811461227957600080fd5b50565b60008135905061228b81612265565b92915050565b600080604083850312156122a8576122a761213f565b5b60006122b68582860161227c565b92505060206122c7858286016121c8565b9150509250929050565b6122da816121a7565b82525050565b60006020820190506122f560008301846122d1565b92915050565b6000806000606084860312156123145761231361213f565b5b600061232286828701612192565b935050602061233386828701612192565b9250506040612344868287016121c8565b9150509250925092565b6000602082840312156123645761236361213f565b5b6000612372848285016121c8565b91505092915050565b600060ff82169050919050565b6123918161237b565b82525050565b60006020820190506123ac6000830184612388565b92915050565b6000602082840312156123c8576123c761213f565b5b60006123d684828501612192565b91505092915050565b600080fd5b600080fd5b7f4e487b7100000000000000000000000000000000000000000000000000000000600052604160045260246000fd5b612421826120c9565b810181811067ffffffffffffffff821117156124405761243f6123e9565b5b80604052505050565b6000612453612135565b905061245f8282612418565b919050565b600067ffffffffffffffff82111561247f5761247e6123e9565b5b612488826120c9565b9050602081019050919050565b82818337600083830152505050565b60006124b76124b284612464565b612449565b9050828152602081018484840111156124d3576124d26123e4565b5b6124de848285612495565b509392505050565b600082601f8301126124fb576124fa6123df565b5b813561250b8482602086016124a4565b91505092915050565b6000806040838503121561252b5761252a61213f565b5b6000612539858286016121c8565b925050602083013567ffffffffffffffff81111561255a57612559612144565b5b612566858286016124e6565b9150509250929050565b61257981612169565b82525050565b60006020820190506125946000830184612570565b92915050565b6125a38161221d565b81146125ae57600080fd5b50565b6000813590506125c08161259a565b92915050565b600080604083850312156125dd576125dc61213f565b5b60006125eb85828601612192565b92505060206125fc858286016125b1565b9150509250929050565b600080600080600060a086880312156126225761262161213f565b5b600061263088828901612192565b9550506020612641888289016121c8565b945050604086013567ffffffffffffffff81111561266257612661612144565b5b61266e888289016124e6565b935050606086013567ffffffffffffffff81111561268f5761268e612144565b5b61269b888289016124e6565b925050608086013567ffffffffffffffff8111156126bc576126bb612144565b5b6126c8888289016124e6565b9150509295509295909350565b600080604083850312156126ec576126eb61213f565b5b60006126fa858286016121c8565b925050602061270b858286016121c8565b9150509250929050565b600081519050919050565b600082825260208201905092915050565b6000819050602082019050919050565b61274a816121a7565b82525050565b600061275c8383612741565b60208301905092915050565b6000602082019050919050565b600061278082612715565b61278a8185612720565b935061279583612731565b8060005b838110156127c65781516127ad8882612750565b97506127b883612768565b925050600181019050612799565b5085935050505092915050565b600081519050919050565b600082825260208201905092915050565b6000819050602082019050919050565b61280881612169565b82525050565b600061281a83836127ff565b60208301905092915050565b6000602082019050919050565b600061283e826127d3565b61284881856127de565b9350612853836127ef565b8060005b8381101561288457815161286b888261280e565b975061287683612826565b925050600181019050612857565b5085935050505092915050565b600081519050919050565b600082825260208201905092915050565b6000819050602082019050919050565b6128c68161221d565b82525050565b60006128d883836128bd565b60208301905092915050565b6000602082019050919050565b60006128fc82612891565b612906818561289c565b9350612911836128ad565b8060005b8381101561294257815161292988826128cc565b9750612934836128e4565b925050600181019050612915565b5085935050505092915050565b600060a08201905081810360008301526129698188612775565b9050818103602083015261297d8187612833565b905081810360408301526129918186612775565b905081810360608301526129a58185612775565b905081810360808301526129b981846128f1565b90509695505050505050565b600060808201905081810360008301526129df81876120da565b905081810360208301526129f381866120da565b90508181036040830152612a0781856120da565b9050612a166060830184612229565b95945050505050565b60008060408385031215612a3657612a3561213f565b5b6000612a4485828601612192565b9250506020612a5585828601612192565b9150509250929050565b600060a082019050612a7460008301886122d1565b612a816020830187612570565b612a8e60408301866122d1565b612a9b60608301856122d1565b612aa86080830184612229565b9695505050505050565b7f4e487b7100000000000000000000000000000000000000000000000000000000600052602260045260246000fd5b60006002820490506001821680612af957607f821691505b602082108103612b0c57612b0b612ab2565b5b50919050565b600081905092915050565b50565b6000612b2d600083612b12565b9150612b3882612b1d565b600082019050919050565b6000612b4e82612b20565b9150819050919050565b7f526573637565206661696c656400000000000000000000000000000000000000600082015250565b6000612b8e600d8361208e565b9150612b9982612b58565b602082019050919050565b60006020820190508181036000830152612bbd81612b81565b9050919050565b7f4c697374696e67206e6f74206163746976650000000000000000000000000000600082015250565b6000612bfa60128361208e565b9150612c0582612bc4565b602082019050919050565b60006020820190508181036000830152612c2981612bed565b9050919050565b7f4e6f7420617574686f72697a6564000000000000000000000000000000000000600082015250565b6000612c66600e8361208e565b9150612c7182612c30565b602082019050919050565b60006020820190508181036000830152612c9581612c59565b9050919050565b7f4e487b7100000000000000000000000000000000000000000000000000000000600052601160045260246000fd5b6000612cd6826121a7565b9150612ce1836121a7565b9250828202612cef816121a7565b91508282048414831517612d0657612d05612c9c565b5b5092915050565b7f496e636f72726563742045544820616d6f756e742073656e7400000000000000600082015250565b6000612d4360198361208e565b9150612d4e82612d0d565b602082019050919050565b60006020820190508181036000830152612d7281612d36565b9050919050565b7f5061796d656e7420746f2073656c6c6572206661696c65640000000000000000600082015250565b6000612daf60188361208e565b9150612dba82612d79565b602082019050919050565b60006020820190508181036000830152612dde81612da2565b9050919050565b6000604082019050612dfa60008301856122d1565b612e0760208301846122d1565b9392505050565b7f416d6f756e74206d757374206265203e20300000000000000000000000000000600082015250565b6000612e4460128361208e565b9150612e4f82612e0e565b602082019050919050565b60006020820190508181036000830152612e7381612e37565b9050919050565b6000604082019050612e8f60008301856122d1565b8181036020830152612ea181846120da565b90509392505050565b7f496e76616c696420616464726573730000000000000000000000000000000000600082015250565b6000612ee0600f8361208e565b9150612eeb82612eaa565b602082019050919050565b60006020820190508181036000830152612f0f81612ed3565b9050919050565b60008190508160005260206000209050919050565b60006020601f8301049050919050565b600082821b905092915050565b600060088302612f787fffffffffffffffffffffffffffffffffffffffffffffffffffffffffffffffff82612f3b565b612f828683612f3b565b95508019841693508086168417925050509392505050565b6000819050919050565b6000612fbf612fba612fb5846121a7565b612f9a565b6121a7565b9050919050565b6000819050919050565b612fd983612fa4565b612fed612fe582612fc6565b848454612f48565b825550505050565b600090565b613002612ff5565b61300d818484612fd0565b505050565b5b8181101561303157613026600082612ffa565b600181019050613013565b5050565b601f8211156130765761304781612f16565b61305084612f2b565b8101602085101561305f578190505b61307361306b85612f2b565b830182613012565b50505b505050565b600082821c905092915050565b60006130996000198460080261307b565b1980831691505092915050565b60006130b28383613088565b9150826002028217905092915050565b6130cb82612083565b67ffffffffffffffff8111156130e4576130e36123e9565b5b6130ee8254612ae1565b6130f9828285613035565b600060209050601f83116001811461312c576000841561311a578287015190505b61312485826130a6565b86555061318c565b601f19841661313a86612f16565b60005b828110156131625784890151825560018201915060208501945060208101905061313d565b8683101561317f578489015161317b601f891682613088565b8355505b6001600288020188555050505b505050505050565b60006080820190506131a960008301876122d1565b81810360208301526131bb81866120da565b905081810360408301526131cf81856120da565b905081810360608301526131e381846120da565b905095945050505050565b7f4e6f7420656e6f75676820637265646974730000000000000000000000000000600082015250565b600061322460128361208e565b915061322f826131ee565b602082019050919050565b6000602082019050818103600083015261325381613217565b9050919050565b7f5072696365206d757374206265203e2030000000000000000000000000000000600082015250565b600061329060118361208e565b915061329b8261325a565b602082019050919050565b600060208201905081810360008301526132bf81613283565b9050919050565b60006132d1826121a7565b91507fffffffffffffffffffffffffffffffffffffffffffffffffffffffffffffffff820361330357613302612c9c565b5b600182019050919050565b6000613319826121a7565b9150613324836121a7565b925082820390508181111561333c5761333b612c9c565b5b92915050565b7f4e487b7100000000000000000000000000000000000000000000000000000000600052603260045260246000fd5b60006060820190506133866000830186612570565b61339360208301856122d1565b6133a060408301846122d1565b949350505050565b60006133b3826121a7565b91506133be836121a7565b92508282019050808211156133d6576133d5612c9c565b5b9291505056fea264697066735822122079619515c8e18c32b85eeaa1392f303cfc1a87ab1585f5374f1753c68746c7ab64736f6c634300081c0033",
  "linkReferences": {},
  "deployedLinkReferences": {}
}