{
  "_format": "hh-sol-artifact-1",
  "contractName": "CO2ken",
  "sourceName": "contracts/CO2ken.sol",
  "abi": [
    {
      "inputs": [],
      "stateMutability": "nonpayable",
      "type": "constructor"
    },
    {
      "inputs": [
        {
          "internalType": "address",
          "name": "spender",
          "type": "address"
        },
        {
          "internalType": "uint256",
          "name": "allowance",
          "type": "uint256"
        },
        {
          "internalType": "uint256",
          "name": "needed",
          "type": "uint256"
        }
      ],
      "name": "ERC20InsufficientAllowance",
      "type": "error"
    },
    {
      "inputs": [
        {
          "internalType": "address",
          "name": "sender",
          "type": "address"
        },
        {
          "internalType": "uint256",
          "name": "balance",
          "type": "uint256"
        },
        {
          "internalType": "uint256",
          "name": "needed",
          "type": "uint256"
        }
      ],
      "name": "ERC20InsufficientBalance",
      "type": "error"
    },
    {
      "inputs": [
        {
          "internalType": "address",
          "name": "approver",
          "type": "address"
        }
      ],
      "name": "ERC20InvalidApprover",
      "type": "error"
    },
    {
      "inputs": [
        {
          "internalType": "address",
          "name": "receiver",
          "type": "address"
        }
      ],
      "name": "ERC20InvalidReceiver",
      "type": "error"
    },
    {
      "inputs": [
        {
          "internalType": "address",
          "name": "sender",
          "type": "address"
        }
      ],
      "name": "ERC20InvalidSender",
      "type": "error"
    },
    {
      "inputs": [
        {
          "internalType": "address",
          "name": "spender",
          "type": "address"
        }
      ],
      "name": "ERC20InvalidSpender",
      "type": "error"
    },
    {
      "inputs": [
        {
          "internalType": "address",
          "name": "owner",
          "type": "address"
        }
      ],
      "name": "OwnableInvalidOwner",
      "type": "error"
    },
    {
      "inputs": [
        {
          "internalType": "address",
          "name": "account",
          "type": "address"
        }
      ],
      "name": "OwnableUnauthorizedAccount",
      "type": "error"
    },
    {
      "anonymous": false,
      "inputs": [
        {
          "indexed": true,
          "internalType": "address",
          "name": "owner",
          "type": "address"
        },
        {
          "indexed": true,
          "internalType": "address",
          "name": "spender",
          "type": "address"
        },
        {
          "indexed": false,
          "internalType": "uint256",
          "name": "value",
          "type": "uint256"
        }
      ],
      "name": "Approval",
      "type": "event"
    },
    {
      "anonymous": false,
      "inputs": [
        {
          "indexed": true,
          "internalType": "address",
          "name": "holder",
          "type": "address"
        },
        {
          "indexed": false,
          "internalType": "bool",
          "name": "verified",
          "type": "bool"
        }
      ],
      "name": "CreditVerified",
      "type": "event"
    },
    {
      "anonymous": false,
      "inputs": [
        {
          "indexed": true,
          "internalType": "address",
          "name": "to",
          "type": "address"
        },
        {
          "indexed": false,
          "internalType": "uint256",
          "name": "amount",
          "type": "uint256"
        },
        {
          "indexed": false,
          "internalType": "string",
          "name": "projectId",
          "type": "string"
        },
        {
          "indexed": false,
          "internalType": "string",
          "name": "vintage",
          "type": "string"
        },
        {
          "indexed": false,
          "internalType": "string",
          "name": "certifier",
          "type": "string"
        }
      ],
      "name": "CreditsMinted",
      "type": "event"
    },
    {
      "anonymous": false,
      "inputs": [
        {
          "indexed": true,
          "internalType": "address",
          "name": "from",
          "type": "address"
        },
        {
          "indexed": false,
          "internalType": "uint256",
          "name": "amount",
          "type": "uint256"
        },
        {
          "indexed": false,
          "internalType": "string",
          "name": "reason",
          "type": "string"
        }
      ],
      "name": "CreditsRetired",
      "type": "event"
    },
    {
      "anonymous": false,
      "inputs": [
        {
          "indexed": false,
          "internalType": "string",
          "name": "label",
          "type": "string"
        },
        {
          "indexed": false,
          "internalType": "address",
          "name": "value",
          "type": "address"
        }
      ],
      "name": "DebugAddr",
      "type": "event"
    },
    {
      "anonymous": false,
      "inputs": [
        {
          "indexed": false,
          "internalType": "string",
          "name": "label",
          "type": "string"
        },
        {
          "indexed": false,
          "internalType": "uint256",
          "name": "value",
          "type": "uint256"
        }
      ],
      "name": "DebugUint",
      "type": "event"
    },
    {
      "anonymous": false,
      "inputs": [
        {
          "indexed": true,
          "internalType": "uint256",
          "name": "id",
          "type": "uint256"
        }
      ],
      "name": "ListingCancelled",
      "type": "event"
    },
    {
      "anonymous": false,
      "inputs": [
        {
          "indexed": true,
          "internalType": "uint256",
          "name": "id",
          "type": "uint256"
        },
        {
          "indexed": true,
          "internalType": "address",
          "name": "seller",
          "type": "address"
        },
        {
          "indexed": false,
          "internalType": "uint256",
          "name": "amount",
          "type": "uint256"
        },
        {
          "indexed": false,
          "internalType": "uint256",
          "name": "pricePerToken",
          "type": "uint256"
        }
      ],
      "name": "ListingCreated",
      "type": "event"
    },
    {
      "anonymous": false,
      "inputs": [
        {
          "indexed": true,
          "internalType": "uint256",
          "name": "id",
          "type": "uint256"
        },
        {
          "indexed": true,
          "internalType": "address",
          "name": "buyer",
          "type": "address"
        },
        {
          "indexed": false,
          "internalType": "uint256",
          "name": "amount",
          "type": "uint256"
        },
        {
          "indexed": false,
          "internalType": "uint256",
          "name": "totalPrice",
          "type": "uint256"
        }
      ],
      "name": "ListingPurchased",
      "type": "event"
    },
    {
      "anonymous": false,
      "inputs": [
        {
          "indexed": true,
          "internalType": "address",
          "name": "previousOwner",
          "type": "address"
        },
        {
          "indexed": true,
          "internalType": "address",
          "name": "newOwner",
          "type": "address"
        }
      ],
      "name": "OwnershipTransferred",
      "type": "event"
    },
    {
      "anonymous": false,
      "inputs": [
        {
          "indexed": true,
          "internalType": "address",
          "name": "from",
          "type": "address"
        },
        {
          "indexed": true,
          "internalType": "address",
          "name": "to",
          "type": "address"
        },
        {
          "indexed": false,
          "internalType": "uint256",
          "name": "value",
          "type": "uint256"
        }
      ],
      "name": "Transfer",
      "type": "event"
    },
    {
      "stateMutability": "payable",
      "type": "fallback"
    },
    {
      "inputs": [
        {
          "internalType": "address",
          "name": "owner",
          "type": "address"
        },
        {
          "internalType": "address",
          "name": "spender",
          "type": "address"
        }
      ],
      "name": "allowance",
      "outputs": [
        {
          "internalType": "uint256",
          "name": "",
          "type": "uint256"
        }
      ],
      "stateMutability": "view",
      "type": "function"
    },
    {
      "inputs": [
        {
          "internalType": "address",
          "name": "spender",
          "type": "address"
        },
        {
          "internalType": "uint256",
          "name": "value",
          "type": "uint256"
        }
      ],
      "name": "approve",
      "outputs": [
        {
          "internalType": "bool",
          "name": "",
          "type": "bool"
        }
      ],
      "stateMutability": "nonpayable",
      "type": "function"
    },
    {
      "inputs": [
        {
          "internalType": "address",
          "name": "account",
          "type": "address"
        }
      ],
      "name": "balanceOf",
      "outputs": [
        {
          "internalType": "uint256",
          "name": "",
          "type": "uint256"
        }
      ],
      "stateMutability": "view",
      "type": "function"
    },
    {
      "inputs": [
        {
          "internalType": "uint256",
          "name": "listingId",
          "type": "uint256"
        }
      ],
      "name": "buyListing",
      "outputs": [],
      "stateMutability": "payable",
      "type": "function"
    },
    {
      "inputs": [
        {
          "internalType": "uint256",
          "name": "listingId",
          "type": "uint256"
        }
      ],
      "name": "cancelListing",
      "outputs": [],
      "stateMutability": "nonpayable",
      "type": "function"
    },
    {
      "inputs": [
        {
          "internalType": "uint256",
          "name": "amount",
          "type": "uint256"
        },
        {
          "internalType": "uint256",
          "name": "pricePerToken",
          "type": "uint256"
        }
      ],
      "name": "createListing",
      "outputs": [],
      "stateMutability": "nonpayable",
      "type": "function"
    },
    {
      "inputs": [
        {
          "internalType": "address",
          "name": "",
          "type": "address"
        }
      ],
      "name": "creditInfo",
      "outputs": [
        {
          "internalType": "string",
          "name": "projectId",
          "type": "string"
        },
        {
          "internalType": "string",
          "name": "vintage",
          "type": "string"
        },
        {
          "internalType": "string",
          "name": "certifier",
          "type": "string"
        },
        {
          "internalType": "bool",
          "name": "verified",
          "type": "bool"
        }
      ],
      "stateMutability": "view",
      "type": "function"
    },
    {
      "inputs": [],
      "name": "decimals",
      "outputs": [
        {
          "internalType": "uint8",
          "name": "",
          "type": "uint8"
        }
      ],
      "stateMutability": "pure",
      "type": "function"
    },
    {
      "inputs": [
        {
          "internalType": "uint256",
          "name": "start",
          "type": "uint256"
        },
        {
          "internalType": "uint256",
          "name": "end",
          "type": "uint256"
        }
      ],
      "name": "getActiveListings",
      "outputs": [
        {
          "internalType": "uint256[]",
          "name": "ids",
          "type": "uint256[]"
        },
        {
          "internalType": "address[]",
          "name": "sellers",
          "type": "address[]"
        },
        {
          "internalType": "uint256[]",
          "name": "amounts",
          "type": "uint256[]"
        },
        {
          "internalType": "uint256[]",
          "name": "prices",
          "type": "uint256[]"
        },
        {
          "internalType": "bool[]",
          "name": "actives",
          "type": "bool[]"
        }
      ],
      "stateMutability": "view",
      "type": "function"
    },
    {
      "inputs": [
        {
          "internalType": "uint256",
          "name": "",
          "type": "uint256"
        }
      ],
      "name": "listings",
      "outputs": [
        {
          "internalType": "uint256",
          "name": "id",
          "type": "uint256"
        },
        {
          "internalType": "address",
          "name": "seller",
          "type": "address"
        },
        {
          "internalType": "uint256",
          "name": "amount",
          "type": "uint256"
        },
        {
          "internalType": "uint256",
          "name": "pricePerToken",
          "type": "uint256"
        },
        {
          "internalType": "bool",
          "name": "active",
          "type": "bool"
        }
      ],
      "stateMutability": "view",
      "type": "function"
    },
    {
      "inputs": [
        {
          "internalType": "address",
          "name": "to",
          "type": "address"
        },
        {
          "internalType": "uint256",
          "name": "amount",
          "type": "uint256"
        },
        {
          "internalType": "string",
          "name": "projectId",
          "type": "string"
        },
        {
          "internalType": "string",
          "name": "vintage",
          "type": "string"
        },
        {
          "internalType": "string",
          "name": "certifier",
          "type": "string"
        }
      ],
      "name": "mintCredits",
      "outputs": [],
      "stateMutability": "nonpayable",
      "type": "function"
    },
    {
      "inputs": [],
      "name": "name",
      "outputs": [
        {
          "internalType": "string",
          "name": "",
          "type": "string"
        }
      ],
      "stateMutability": "view",
      "type": "function"
    },
    {
      "inputs": [],
      "name": "nextListingId",
      "outputs": [
        {
          "internalType": "uint256",
          "name": "",
          "type": "uint256"
        }
      ],
      "stateMutability": "view",
      "type": "function"
    },
    {
      "inputs": [],
      "name": "owner",
      "outputs": [
        {
          "internalType": "address",
          "name": "",
          "type": "address"
        }
      ],
      "stateMutability": "view",
      "type": "function"
    },
    {
      "inputs": [],
      "name": "renounceOwnership",
      "outputs": [],
      "stateMutability": "nonpayable",
      "type": "function"
    },
    {
      "inputs": [
        {
          "internalType": "address payable",
          "name": "to",
          "type": "address"
        },
        {
          "internalType": "uint256",
          "name": "amount",
          "type": "uint256"
        }
      ],
      "name": "rescueETH",
      "outputs": [],
      "stateMutability": "nonpayable",
      "type": "function"
    },
    {
      "inputs": [
        {
          "internalType": "uint256",
          "name": "amount",
          "type": "uint256"
        },
        {
          "internalType": "string",
          "name": "reason",
          "type": "string"
        }
      ],
      "name": "retireCredits",
      "outputs": [],
      "stateMutability": "nonpayable",
      "type": "function"
    },
    {
      "inputs": [],
      "name": "symbol",
      "outputs": [
        {
          "internalType": "string",
          "name": "",
          "type": "string"
        }
      ],
      "stateMutability": "view",
      "type": "function"
    },
    {
      "inputs": [],
      "name": "totalSupply",
      "outputs": [
        {
          "internalType": "uint256",
          "name": "",
          "type": "uint256"
        }
      ],
      "stateMutability": "view",
      "type": "function"
    },
    {
      "inputs": [
        {
          "internalType": "address",
          "name": "to",
          "type": "address"
        },
        {
          "internalType": "uint256",
          "name": "value",
          "type": "uint256"
        }
      ],
      "name": "transfer",
      "outputs": [
        {
          "internalType": "bool",
          "name": "",
          "type": "bool"
        }
      ],
      "stateMutability": "nonpayable",
      "type": "function"
    },
    {
      "inputs": [
        {
          "internalType": "address",
          "name": "from",
          "type": "address"
        },
        {
          "internalType": "address",
          "name": "to",
          "type": "address"
        },
        {
          "internalType": "uint256",
          "name": "value",
          "type": "uint256"
        }
      ],
      "name": "transferFrom",
      "outputs": [
        {
          "internalType": "bool",
          "name": "",
          "type": "bool"
        }
      ],
      "stateMutability": "nonpayable",
      "type": "function"
    },
    {
      "inputs": [
        {
          "internalType": "address",
          "name": "newOwner",
          "type": "address"
        }
      ],
      "name": "transferOwnership",
      "outputs": [],
      "stateMutability": "nonpayable",
      "type": "function"
    },
    {
      "inputs": [
        {
          "internalType": "address",
          "name": "holder",
          "type": "address"
        },
        {
          "internalType": "bool",
          "name": "isVerified",
          "type": "bool"
        }
      ],
      "name": "verifyCredit",
      "outputs": [],
      "stateMutability": "nonpayable",
      "type": "function"
    },
    {
      "stateMutability": "payable",
      "type": "receive"
    }
  ],
  "bytecode": "0x608060405234801561001057600080fd5b50336040518060400160405280600d81526020017f436172626f6e20437265646974000000000000000000000000000000000000008152506040518060400160405280600481526020017f53434f3200000000000000000000000000000000000000000000000000000000815250816003908161008d919061043d565b50806004908161009d919061043d565b505050600073ffffffffffffffffffffffffffffffffffffffff168173ffffffffffffffffffffffffffffffffffffffff16036101125760006040517f1e4fbdf70000000000000000000000000000000000000000000000000000000081526004016101099190610550565b60405180910390fd5b6101218161012760201b60201c565b5061056b565b6000600560009054906101000a900473ffffffffffffffffffffffffffffffffffffffff16905081600560006101000a81548173ffffffffffffffffffffffffffffffffffffffff021916908373ffffffffffffffffffffffffffffffffffffffff1602179055508173ffffffffffffffffffffffffffffffffffffffff168173ffffffffffffffffffffffffffffffffffffffff167f8be0079c531659141344cd1fd0a4f28419497f9722a3daafe3b4186f6b6457e060405160405180910390a35050565b600081519050919050565b7f4e487b7100000000000000000000000000000000000000000000000000000000600052604160045260246000fd5b7f4e487b7100000000000000000000000000000000000000000000000000000000600052602260045260246000fd5b6000600282049050600182168061026e57607f821691505b60208210810361028157610280610227565b5b50919050565b60008190508160005260206000209050919050565b60006020601f8301049050919050565b600082821b905092915050565b6000600883026102e97fffffffffffffffffffffffffffffffffffffffffffffffffffffffffffffffff826102ac565b6102f386836102ac565b95508019841693508086168417925050509392505050565b6000819050919050565b6000819050919050565b600061033a6103356103308461030b565b610315565b61030b565b9050919050565b6000819050919050565b6103548361031f565b61036861036082610341565b8484546102b9565b825550505050565b600090565b61037d610370565b61038881848461034b565b505050565b5b818110156103ac576103a1600082610375565b60018101905061038e565b5050565b601f8211156103f1576103c281610287565b6103cb8461029c565b810160208510156103da578190505b6103ee6103e68561029c565b83018261038d565b50505b505050565b600082821c905092915050565b6000610414600019846008026103f6565b1980831691505092915050565b600061042d8383610403565b9150826002028217905092915050565b610446826101ed565b67ffffffffffffffff81111561045f5761045e6101f8565b5b6104698254610256565b6104748282856103b0565b600060209050601f8311600181146104a75760008415610495578287015190505b61049f8582610421565b865550610507565b601f1984166104b586610287565b60005b828110156104dd578489015182556001820191506020850194506020810190506104b8565b868310156104fa57848901516104f6601f891682610403565b8355505b6001600288020188555050505b505050505050565b600073ffffffffffffffffffffffffffffffffffffffff82169050919050565b600061053a8261050f565b9050919050565b61054a8161052f565b82525050565b60006020820190506105656000830184610541565b92915050565b6139288061057a6000396000f3fe6080604052600436106101445760003560e01c80638da5cb5b116100b6578063aaccf1ec1161006f578063aaccf1ec1461043b578063c128b23114610466578063d5b09cb7146104a7578063dd62ed3e146104e7578063de74e57b14610524578063f2fde38b1461056557610145565b80638da5cb5b1461032d5780639424d0e21461035857806395d89b4114610381578063a45d4ff0146103ac578063a79123a9146103d5578063a9059cbb146103fe57610145565b8063305a67a811610108578063305a67a814610240578063313ce567146102695780634884f4591461029457806370a08231146102b0578063715018a6146102ed57806389b9ac7f1461030457610145565b806306fdde0314610147578063095ea7b314610172578063099a04e5146101af57806318160ddd146101d857806323b872dd1461020357610145565b5b005b34801561015357600080fd5b5061015c61058e565b60405161016991906122d3565b60405180910390f35b34801561017e57600080fd5b506101996004803603810190610194919061239d565b610620565b6040516101a691906123f8565b60405180910390f35b3480156101bb57600080fd5b506101d660048036038101906101d19190612451565b610643565b005b3480156101e457600080fd5b506101ed6106fc565b6040516101fa91906124a0565b60405180910390f35b34801561020f57600080fd5b5061022a600480360381019061022591906124bb565b610706565b60405161023791906123f8565b60405180910390f35b34801561024c57600080fd5b506102676004803603810190610262919061250e565b610735565b005b34801561027557600080fd5b5061027e6108ed565b60405161028b9190612557565b60405180910390f35b6102ae60048036038101906102a9919061250e565b6108f6565b005b3480156102bc57600080fd5b506102d760048036038101906102d29190612572565b610ccf565b6040516102e491906124a0565b60405180910390f35b3480156102f957600080fd5b50610302610d17565b005b34801561031057600080fd5b5061032b600480360381019061032691906126d4565b610d2b565b005b34801561033957600080fd5b50610342610dcc565b60405161034f919061273f565b60405180910390f35b34801561036457600080fd5b5061037f600480360381019061037a9190612786565b610df6565b005b34801561038d57600080fd5b50610396610eaa565b6040516103a391906122d3565b60405180910390f35b3480156103b857600080fd5b506103d360048036038101906103ce91906127c6565b610f3c565b005b3480156103e157600080fd5b506103fc60048036038101906103f79190612895565b611123565b005b34801561040a57600080fd5b506104256004803603810190610420919061239d565b61134d565b60405161043291906123f8565b60405180910390f35b34801561044757600080fd5b50610450611370565b60405161045d91906124a0565b60405180910390f35b34801561047257600080fd5b5061048d60048036038101906104889190612895565b611376565b60405161049e959493929190612b0f565b60405180910390f35b3480156104b357600080fd5b506104ce60048036038101906104c99190612572565b61170e565b6040516104de9493929190612b85565b60405180910390f35b3480156104f357600080fd5b5061050e60048036038101906105099190612bdf565b6118e3565b60405161051b91906124a0565b60405180910390f35b34801561053057600080fd5b5061054b6004803603810190610546919061250e565b61196a565b60405161055c959493929190612c1f565b60405180910390f35b34801561057157600080fd5b5061058c60048036038101906105879190612572565b6119cd565b005b60606003805461059d90612ca1565b80601f01602080910402602001604051908101604052809291908181526020018280546105c990612ca1565b80156106165780601f106105eb57610100808354040283529160200191610616565b820191906000526020600020905b8154815290600101906020018083116105f957829003601f168201915b5050505050905090565b60008061062b611a53565b9050610638818585611a5b565b600191505092915050565b61064b611a6d565b60008273ffffffffffffffffffffffffffffffffffffffff168260405161067190612d03565b60006040518083038185875af1925050503d80600081146106ae576040519150601f19603f3d011682016040523d82523d6000602084013e6106b3565b606091505b50509050806106f7576040517f08c379a00000000000000000000000000000000000000000000000000000000081526004016106ee90612d64565b60405180910390fd5b505050565b6000600254905090565b600080610711611a53565b905061071e858285611af4565b610729858585611b89565b60019150509392505050565b60006008600083815260200190815260200160002090508060040160009054906101000a900460ff1661079d576040517f08c379a000000000000000000000000000000000000000000000000000000000815260040161079490612dd0565b60405180910390fd5b3373ffffffffffffffffffffffffffffffffffffffff168160010160009054906101000a900473ffffffffffffffffffffffffffffffffffffffff1673ffffffffffffffffffffffffffffffffffffffff16148061082d57506107fe610dcc565b73ffffffffffffffffffffffffffffffffffffffff163373ffffffffffffffffffffffffffffffffffffffff16145b61086c576040517f08c379a000000000000000000000000000000000000000000000000000000000815260040161086390612e3c565b60405180910390fd5b60008160040160006101000a81548160ff0219169083151502179055506108bc308260010160009054906101000a900473ffffffffffffffffffffffffffffffffffffffff168360020154611b89565b817f411aee90354c51b1b04cd563fcab2617142a9d50da19232d888547c8a1b7fd8a60405160405180910390a25050565b60006006905090565b60006008600083815260200190815260200160002090507f2c78221d853bf45521bf53ad2802eb4470185a3cad34373f42e4639a8fdeb1978260405161093c9190612ea8565b60405180910390a17f619c62393708f63887b9ff82e481dbe31792a4445225c39a9d31d2144bccafb4336040516109739190612f22565b60405180910390a17f619c62393708f63887b9ff82e481dbe31792a4445225c39a9d31d2144bccafb48160010160009054906101000a900473ffffffffffffffffffffffffffffffffffffffff166040516109ce9190612f9c565b60405180910390a17f2c78221d853bf45521bf53ad2802eb4470185a3cad34373f42e4639a8fdeb1978160020154604051610a099190613016565b60405180910390a17f2c78221d853bf45521bf53ad2802eb4470185a3cad34373f42e4639a8fdeb1978160030154604051610a449190613090565b60405180910390a17f2c78221d853bf45521bf53ad2802eb4470185a3cad34373f42e4639a8fdeb19734604051610a7b919061310a565b60405180910390a17f2c78221d853bf45521bf53ad2802eb4470185a3cad34373f42e4639a8fdeb19781600301548260020154610ab89190613167565b604051610ac591906131f5565b60405180910390a18060040160009054906101000a900460ff16610b1e576040517f08c379a0000000000000000000000000000000000000000000000000000000008152600401610b1590612dd0565b60405180910390fd5b600081600301548260020154610b349190613167565b9050803414610b78576040517f08c379a0000000000000000000000000000000000000000000000000000000008152600401610b6f9061326f565b60405180910390fd5b60008260040160006101000a81548160ff021916908315150217905550610ba430338460020154611b89565b60008260010160009054906101000a900473ffffffffffffffffffffffffffffffffffffffff1673ffffffffffffffffffffffffffffffffffffffff1634604051610bee90612d03565b60006040518083038185875af1925050503d8060008114610c2b576040519150601f19603f3d011682016040523d82523d6000602084013e610c30565b606091505b5050905080610c74576040517f08c379a0000000000000000000000000000000000000000000000000000000008152600401610c6b906132db565b60405180910390fd5b3373ffffffffffffffffffffffffffffffffffffffff16847f0db6cd6881fc0453b2d01f52eb5a16417707659f245732abc10f847426e3525d856002015485604051610cc19291906132fb565b60405180910390a350505050565b60008060008373ffffffffffffffffffffffffffffffffffffffff1673ffffffffffffffffffffffffffffffffffffffff168152602001908152602001600020549050919050565b610d1f611a6d565b610d296000611c7d565b565b60008211610d6e576040517f08c379a0000000000000000000000000000000000000000000000000000000008152600401610d6590613370565b60405180910390fd5b610d783383611d43565b3373ffffffffffffffffffffffffffffffffffffffff167f554ae59b59830600d0638ca7a742c4d11a7030f32a6885c3f2bea19ca1d26ecb8383604051610dc0929190613390565b60405180910390a25050565b6000600560009054906101000a900473ffffffffffffffffffffffffffffffffffffffff16905090565b610dfe611a6d565b80600660008473ffffffffffffffffffffffffffffffffffffffff1673ffffffffffffffffffffffffffffffffffffffff16815260200190815260200160002060030160006101000a81548160ff0219169083151502179055508173ffffffffffffffffffffffffffffffffffffffff167f336e0c64aa3462337a47f5df109e1cd00c7872fa93024dfe40ffab44058a359582604051610e9e91906123f8565b60405180910390a25050565b606060048054610eb990612ca1565b80601f0160208091040260200160405190810160405280929190818152602001828054610ee590612ca1565b8015610f325780601f10610f0757610100808354040283529160200191610f32565b820191906000526020600020905b815481529060010190602001808311610f1557829003601f168201915b5050505050905090565b610f44611a6d565b600073ffffffffffffffffffffffffffffffffffffffff168573ffffffffffffffffffffffffffffffffffffffff1603610fb3576040517f08c379a0000000000000000000000000000000000000000000000000000000008152600401610faa9061340c565b60405180910390fd5b60008411610ff6576040517f08c379a0000000000000000000000000000000000000000000000000000000008152600401610fed90613370565b60405180910390fd5b6110008585611dc5565b604051806080016040528084815260200183815260200182815260200160001515815250600660008773ffffffffffffffffffffffffffffffffffffffff1673ffffffffffffffffffffffffffffffffffffffff168152602001908152602001600020600082015181600001908161107891906135d8565b50602082015181600101908161108e91906135d8565b5060408201518160020190816110a491906135d8565b5060608201518160030160006101000a81548160ff0219169083151502179055509050508473ffffffffffffffffffffffffffffffffffffffff167f5e8e4cf0cab3761fab0519ef540368fc196a0f398640bbe084a573b4c3d8cf588585858560405161111494939291906136aa565b60405180910390a25050505050565b8161112d33610ccf565b101561116e576040517f08c379a000000000000000000000000000000000000000000000000000000000815260040161116590613750565b60405180910390fd5b600082116111b1576040517f08c379a00000000000000000000000000000000000000000000000000000000081526004016111a890613370565b60405180910390fd5b600081116111f4576040517f08c379a00000000000000000000000000000000000000000000000000000000081526004016111eb906137bc565b60405180910390fd5b6111ff333084611b89565b6040518060a0016040528060075481526020013373ffffffffffffffffffffffffffffffffffffffff168152602001838152602001828152602001600115158152506008600060075481526020019081526020016000206000820151816000015560208201518160010160006101000a81548173ffffffffffffffffffffffffffffffffffffffff021916908373ffffffffffffffffffffffffffffffffffffffff160217905550604082015181600201556060820151816003015560808201518160040160006101000a81548160ff0219169083151502179055509050503373ffffffffffffffffffffffffffffffffffffffff166007547f12dc294b81a709d694b1337a350a12a00076c19a77a25aab67a5f0c07e0f164d84846040516113299291906132fb565b60405180910390a360076000815480929190611344906137dc565b91905055505050565b600080611358611a53565b9050611365818585611b89565b600191505092915050565b60075481565b6060806060806060868611158061138e575060075486115b156113b45760608060608060608484848484995099509950995099505050505050611704565b600087876113c29190613824565b90508067ffffffffffffffff8111156113de576113dd6125a9565b5b60405190808252806020026020018201604052801561140c5781602001602082028036833780820191505090505b5095508067ffffffffffffffff811115611429576114286125a9565b5b6040519080825280602002602001820160405280156114575781602001602082028036833780820191505090505b5094508067ffffffffffffffff811115611474576114736125a9565b5b6040519080825280602002602001820160405280156114a25781602001602082028036833780820191505090505b5093508067ffffffffffffffff8111156114bf576114be6125a9565b5b6040519080825280602002602001820160405280156114ed5781602001602082028036833780820191505090505b5092508067ffffffffffffffff81111561150a576115096125a9565b5b6040519080825280602002602001820160405280156115385781602001602082028036833780820191505090505b50915060008890505b87811015611701576000600860008381526020019081526020016000206040518060a0016040529081600082015481526020016001820160009054906101000a900473ffffffffffffffffffffffffffffffffffffffff1673ffffffffffffffffffffffffffffffffffffffff1673ffffffffffffffffffffffffffffffffffffffff16815260200160028201548152602001600382015481526020016004820160009054906101000a900460ff161515151581525050905060008a836116089190613824565b9050816000015189828151811061162257611621613858565b5b602002602001018181525050816020015188828151811061164657611645613858565b5b602002602001019073ffffffffffffffffffffffffffffffffffffffff16908173ffffffffffffffffffffffffffffffffffffffff1681525050816040015187828151811061169857611697613858565b5b60200260200101818152505081606001518682815181106116bc576116bb613858565b5b60200260200101818152505081608001518582815181106116e0576116df613858565b5b60200260200101901515908115158152505050508080600101915050611541565b50505b9295509295909350565b600660205280600052604060002060009150905080600001805461173190612ca1565b80601f016020809104026020016040519081016040528092919081815260200182805461175d90612ca1565b80156117aa5780601f1061177f576101008083540402835291602001916117aa565b820191906000526020600020905b81548152906001019060200180831161178d57829003601f168201915b5050505050908060010180546117bf90612ca1565b80601f01602080910402602001604051908101604052809291908181526020018280546117eb90612ca1565b80156118385780601f1061180d57610100808354040283529160200191611838565b820191906000526020600020905b81548152906001019060200180831161181b57829003601f168201915b50505050509080600201805461184d90612ca1565b80601f016020809104026020016040519081016040528092919081815260200182805461187990612ca1565b80156118c65780601f1061189b576101008083540402835291602001916118c6565b820191906000526020600020905b8154815290600101906020018083116118a957829003601f168201915b5050505050908060030160009054906101000a900460ff16905084565b6000600160008473ffffffffffffffffffffffffffffffffffffffff1673ffffffffffffffffffffffffffffffffffffffff16815260200190815260200160002060008373ffffffffffffffffffffffffffffffffffffffff1673ffffffffffffffffffffffffffffffffffffffff16815260200190815260200160002054905092915050565b60086020528060005260406000206000915090508060000154908060010160009054906101000a900473ffffffffffffffffffffffffffffffffffffffff16908060020154908060030154908060040160009054906101000a900460ff16905085565b6119d5611a6d565b600073ffffffffffffffffffffffffffffffffffffffff168173ffffffffffffffffffffffffffffffffffffffff1603611a475760006040517f1e4fbdf7000000000000000000000000000000000000000000000000000000008152600401611a3e919061273f565b60405180910390fd5b611a5081611c7d565b50565b600033905090565b611a688383836001611e47565b505050565b611a75611a53565b73ffffffffffffffffffffffffffffffffffffffff16611a93610dcc565b73ffffffffffffffffffffffffffffffffffffffff1614611af257611ab6611a53565b6040517f118cdaa7000000000000000000000000000000000000000000000000000000008152600401611ae9919061273f565b60405180910390fd5b565b6000611b0084846118e3565b90507fffffffffffffffffffffffffffffffffffffffffffffffffffffffffffffffff811015611b835781811015611b73578281836040517ffb8f41b2000000000000000000000000000000000000000000000000000000008152600401611b6a93929190613887565b60405180910390fd5b611b8284848484036000611e47565b5b50505050565b600073ffffffffffffffffffffffffffffffffffffffff168373ffffffffffffffffffffffffffffffffffffffff1603611bfb5760006040517f96c6fd1e000000000000000000000000000000000000000000000000000000008152600401611bf2919061273f565b60405180910390fd5b600073ffffffffffffffffffffffffffffffffffffffff168273ffffffffffffffffffffffffffffffffffffffff1603611c6d5760006040517fec442f05000000000000000000000000000000000000000000000000000000008152600401611c64919061273f565b60405180910390fd5b611c7883838361201e565b505050565b6000600560009054906101000a900473ffffffffffffffffffffffffffffffffffffffff16905081600560006101000a81548173ffffffffffffffffffffffffffffffffffffffff021916908373ffffffffffffffffffffffffffffffffffffffff1602179055508173ffffffffffffffffffffffffffffffffffffffff168173ffffffffffffffffffffffffffffffffffffffff167f8be0079c531659141344cd1fd0a4f28419497f9722a3daafe3b4186f6b6457e060405160405180910390a35050565b600073ffffffffffffffffffffffffffffffffffffffff168273ffffffffffffffffffffffffffffffffffffffff1603611db55760006040517f96c6fd1e000000000000000000000000000000000000000000000000000000008152600401611dac919061273f565b60405180910390fd5b611dc18260008361201e565b5050565b600073ffffffffffffffffffffffffffffffffffffffff168273ffffffffffffffffffffffffffffffffffffffff1603611e375760006040517fec442f05000000000000000000000000000000000000000000000000000000008152600401611e2e919061273f565b60405180910390fd5b611e436000838361201e565b5050565b600073ffffffffffffffffffffffffffffffffffffffff168473ffffffffffffffffffffffffffffffffffffffff1603611eb95760006040517fe602df05000000000000000000000000000000000000000000000000000000008152600401611eb0919061273f565b60405180910390fd5b600073ffffffffffffffffffffffffffffffffffffffff168373ffffffffffffffffffffffffffffffffffffffff1603611f2b5760006040517f94280d62000000000000000000000000000000000000000000000000000000008152600401611f22919061273f565b60405180910390fd5b81600160008673ffffffffffffffffffffffffffffffffffffffff1673ffffffffffffffffffffffffffffffffffffffff16815260200190815260200160002060008573ffffffffffffffffffffffffffffffffffffffff1673ffffffffffffffffffffffffffffffffffffffff168152602001908152602001600020819055508015612018578273ffffffffffffffffffffffffffffffffffffffff168473ffffffffffffffffffffffffffffffffffffffff167f8c5be1e5ebec7d5bd14f71427d1e84f3dd0314c0f7b2291e5b200ac8c7c3b9258460405161200f91906124a0565b60405180910390a35b50505050565b600073ffffffffffffffffffffffffffffffffffffffff168373ffffffffffffffffffffffffffffffffffffffff160361207057806002600082825461206491906138be565b92505081905550612143565b60008060008573ffffffffffffffffffffffffffffffffffffffff1673ffffffffffffffffffffffffffffffffffffffff168152602001908152602001600020549050818110156120fc578381836040517fe450d38c0000000000000000000000000000000000000000000000000000000081526004016120f393929190613887565b60405180910390fd5b8181036000808673ffffffffffffffffffffffffffffffffffffffff1673ffffffffffffffffffffffffffffffffffffffff16815260200190815260200160002081905550505b600073ffffffffffffffffffffffffffffffffffffffff168273ffffffffffffffffffffffffffffffffffffffff160361218c57806002600082825403925050819055506121d9565b806000808473ffffffffffffffffffffffffffffffffffffffff1673ffffffffffffffffffffffffffffffffffffffff168152602001908152602001600020600082825401925050819055505b8173ffffffffffffffffffffffffffffffffffffffff168373ffffffffffffffffffffffffffffffffffffffff167fddf252ad1be2c89b69c2b068fc378daa952ba7f163c4a11628f55a4df523b3ef8360405161223691906124a0565b60405180910390a3505050565b600081519050919050565b600082825260208201905092915050565b60005b8381101561227d578082015181840152602081019050612262565b60008484015250505050565b6000601f19601f8301169050919050565b60006122a582612243565b6122af818561224e565b93506122bf81856020860161225f565b6122c881612289565b840191505092915050565b600060208201905081810360008301526122ed818461229a565b905092915050565b6000604051905090565b600080fd5b600080fd5b600073ffffffffffffffffffffffffffffffffffffffff82169050919050565b600061233482612309565b9050919050565b61234481612329565b811461234f57600080fd5b50565b6000813590506123618161233b565b92915050565b6000819050919050565b61237a81612367565b811461238557600080fd5b50565b60008135905061239781612371565b92915050565b600080604083850312156123b4576123b36122ff565b5b60006123c285828601612352565b92505060206123d385828601612388565b9150509250929050565b60008115159050919050565b6123f2816123dd565b82525050565b600060208201905061240d60008301846123e9565b92915050565b600061241e82612309565b9050919050565b61242e81612413565b811461243957600080fd5b50565b60008135905061244b81612425565b92915050565b60008060408385031215612468576124676122ff565b5b60006124768582860161243c565b925050602061248785828601612388565b9150509250929050565b61249a81612367565b82525050565b60006020820190506124b56000830184612491565b92915050565b6000806000606084860312156124d4576124d36122ff565b5b60006124e286828701612352565b93505060206124f386828701612352565b925050604061250486828701612388565b9150509250925092565b600060208284031215612524576125236122ff565b5b600061253284828501612388565b91505092915050565b600060ff82169050919050565b6125518161253b565b82525050565b600060208201905061256c6000830184612548565b92915050565b600060208284031215612588576125876122ff565b5b600061259684828501612352565b91505092915050565b600080fd5b600080fd5b7f4e487b7100000000000000000000000000000000000000000000000000000000600052604160045260246000fd5b6125e182612289565b810181811067ffffffffffffffff82111715612600576125ff6125a9565b5b80604052505050565b60006126136122f5565b905061261f82826125d8565b919050565b600067ffffffffffffffff82111561263f5761263e6125a9565b5b61264882612289565b9050602081019050919050565b82818337600083830152505050565b600061267761267284612624565b612609565b905082815260208101848484011115612693576126926125a4565b5b61269e848285612655565b509392505050565b600082601f8301126126bb576126ba61259f565b5b81356126cb848260208601612664565b91505092915050565b600080604083850312156126eb576126ea6122ff565b5b60006126f985828601612388565b925050602083013567ffffffffffffffff81111561271a57612719612304565b5b612726858286016126a6565b9150509250929050565b61273981612329565b82525050565b60006020820190506127546000830184612730565b92915050565b612763816123dd565b811461276e57600080fd5b50565b6000813590506127808161275a565b92915050565b6000806040838503121561279d5761279c6122ff565b5b60006127ab85828601612352565b92505060206127bc85828601612771565b9150509250929050565b600080600080600060a086880312156127e2576127e16122ff565b5b60006127f088828901612352565b955050602061280188828901612388565b945050604086013567ffffffffffffffff81111561282257612821612304565b5b61282e888289016126a6565b935050606086013567ffffffffffffffff81111561284f5761284e612304565b5b61285b888289016126a6565b925050608086013567ffffffffffffffff81111561287c5761287b612304565b5b612888888289016126a6565b9150509295509295909350565b600080604083850312156128ac576128ab6122ff565b5b60006128ba85828601612388565b92505060206128cb85828601612388565b9150509250929050565b600081519050919050565b600082825260208201905092915050565b6000819050602082019050919050565b61290a81612367565b82525050565b600061291c8383612901565b60208301905092915050565b6000602082019050919050565b6000612940826128d5565b61294a81856128e0565b9350612955836128f1565b8060005b8381101561298657815161296d8882612910565b975061297883612928565b925050600181019050612959565b5085935050505092915050565b600081519050919050565b600082825260208201905092915050565b6000819050602082019050919050565b6129c881612329565b82525050565b60006129da83836129bf565b60208301905092915050565b6000602082019050919050565b60006129fe82612993565b612a08818561299e565b9350612a13836129af565b8060005b83811015612a44578151612a2b88826129ce565b9750612a36836129e6565b925050600181019050612a17565b5085935050505092915050565b600081519050919050565b600082825260208201905092915050565b6000819050602082019050919050565b612a86816123dd565b82525050565b6000612a988383612a7d565b60208301905092915050565b6000602082019050919050565b6000612abc82612a51565b612ac68185612a5c565b9350612ad183612a6d565b8060005b83811015612b02578151612ae98882612a8c565b9750612af483612aa4565b925050600181019050612ad5565b5085935050505092915050565b600060a0820190508181036000830152612b298188612935565b90508181036020830152612b3d81876129f3565b90508181036040830152612b518186612935565b90508181036060830152612b658185612935565b90508181036080830152612b798184612ab1565b90509695505050505050565b60006080820190508181036000830152612b9f818761229a565b90508181036020830152612bb3818661229a565b90508181036040830152612bc7818561229a565b9050612bd660608301846123e9565b95945050505050565b60008060408385031215612bf657612bf56122ff565b5b6000612c0485828601612352565b9250506020612c1585828601612352565b9150509250929050565b600060a082019050612c346000830188612491565b612c416020830187612730565b612c4e6040830186612491565b612c5b6060830185612491565b612c6860808301846123e9565b9695505050505050565b7f4e487b7100000000000000000000000000000000000000000000000000000000600052602260045260246000fd5b60006002820490506001821680612cb957607f821691505b602082108103612ccc57612ccb612c72565b5b50919050565b600081905092915050565b50565b6000612ced600083612cd2565b9150612cf882612cdd565b600082019050919050565b6000612d0e82612ce0565b9150819050919050565b7f526573637565206661696c656400000000000000000000000000000000000000600082015250565b6000612d4e600d8361224e565b9150612d5982612d18565b602082019050919050565b60006020820190508181036000830152612d7d81612d41565b9050919050565b7f4c697374696e67206e6f74206163746976650000000000000000000000000000600082015250565b6000612dba60128361224e565b9150612dc582612d84565b602082019050919050565b60006020820190508181036000830152612de981612dad565b9050919050565b7f4e6f7420617574686f72697a6564000000000000000000000000000000000000600082015250565b6000612e26600e8361224e565b9150612e3182612df0565b602082019050919050565b60006020820190508181036000830152612e5581612e19565b9050919050565b7f6c697374696e6749640000000000000000000000000000000000000000000000600082015250565b6000612e9260098361224e565b9150612e9d82612e5c565b602082019050919050565b60006040820190508181036000830152612ec181612e85565b9050612ed06020830184612491565b92915050565b7f6275796572000000000000000000000000000000000000000000000000000000600082015250565b6000612f0c60058361224e565b9150612f1782612ed6565b602082019050919050565b60006040820190508181036000830152612f3b81612eff565b9050612f4a6020830184612730565b92915050565b7f73656c6c65720000000000000000000000000000000000000000000000000000600082015250565b6000612f8660068361224e565b9150612f9182612f50565b602082019050919050565b60006040820190508181036000830152612fb581612f79565b9050612fc46020830184612730565b92915050565b7f616d6f756e740000000000000000000000000000000000000000000000000000600082015250565b600061300060068361224e565b915061300b82612fca565b602082019050919050565b6000604082019050818103600083015261302f81612ff3565b905061303e6020830184612491565b92915050565b7f7072696365506572546f6b656e00000000000000000000000000000000000000600082015250565b600061307a600d8361224e565b915061308582613044565b602082019050919050565b600060408201905081810360008301526130a98161306d565b90506130b86020830184612491565b92915050565b7f6d73672e76616c75650000000000000000000000000000000000000000000000600082015250565b60006130f460098361224e565b91506130ff826130be565b602082019050919050565b60006040820190508181036000830152613123816130e7565b90506131326020830184612491565b92915050565b7f4e487b7100000000000000000000000000000000000000000000000000000000600052601160045260246000fd5b600061317282612367565b915061317d83612367565b925082820261318b81612367565b915082820484148315176131a2576131a1613138565b5b5092915050565b7f6578706563746564546f74616c00000000000000000000000000000000000000600082015250565b60006131df600d8361224e565b91506131ea826131a9565b602082019050919050565b6000604082019050818103600083015261320e816131d2565b905061321d6020830184612491565b92915050565b7f496e636f72726563742045544820616d6f756e742073656e7400000000000000600082015250565b600061325960198361224e565b915061326482613223565b602082019050919050565b600060208201905081810360008301526132888161324c565b9050919050565b7f5061796d656e7420746f2073656c6c6572206661696c65640000000000000000600082015250565b60006132c560188361224e565b91506132d08261328f565b602082019050919050565b600060208201905081810360008301526132f4816132b8565b9050919050565b60006040820190506133106000830185612491565b61331d6020830184612491565b9392505050565b7f416d6f756e74206d757374206265203e20300000000000000000000000000000600082015250565b600061335a60128361224e565b915061336582613324565b602082019050919050565b600060208201905081810360008301526133898161334d565b9050919050565b60006040820190506133a56000830185612491565b81810360208301526133b7818461229a565b90509392505050565b7f496e76616c696420616464726573730000000000000000000000000000000000600082015250565b60006133f6600f8361224e565b9150613401826133c0565b602082019050919050565b60006020820190508181036000830152613425816133e9565b9050919050565b60008190508160005260206000209050919050565b60006020601f8301049050919050565b600082821b905092915050565b60006008830261348e7fffffffffffffffffffffffffffffffffffffffffffffffffffffffffffffffff82613451565b6134988683613451565b95508019841693508086168417925050509392505050565b6000819050919050565b60006134d56134d06134cb84612367565b6134b0565b612367565b9050919050565b6000819050919050565b6134ef836134ba565b6135036134fb826134dc565b84845461345e565b825550505050565b600090565b61351861350b565b6135238184846134e6565b505050565b5b818110156135475761353c600082613510565b600181019050613529565b5050565b601f82111561358c5761355d8161342c565b61356684613441565b81016020851015613575578190505b61358961358185613441565b830182613528565b50505b505050565b600082821c905092915050565b60006135af60001984600802613591565b1980831691505092915050565b60006135c8838361359e565b9150826002028217905092915050565b6135e182612243565b67ffffffffffffffff8111156135fa576135f96125a9565b5b6136048254612ca1565b61360f82828561354b565b600060209050601f8311600181146136425760008415613630578287015190505b61363a85826135bc565b8655506136a2565b601f1984166136508661342c565b60005b8281101561367857848901518255600182019150602085019450602081019050613653565b868310156136955784890151613691601f89168261359e565b8355505b6001600288020188555050505b505050505050565b60006080820190506136bf6000830187612491565b81810360208301526136d1818661229a565b905081810360408301526136e5818561229a565b905081810360608301526136f9818461229a565b905095945050505050565b7f4e6f7420656e6f75676820637265646974730000000000000000000000000000600082015250565b600061373a60128361224e565b915061374582613704565b602082019050919050565b600060208201905081810360008301526137698161372d565b9050919050565b7f5072696365206d757374206265203e2030000000000000000000000000000000600082015250565b60006137a660118361224e565b91506137b182613770565b602082019050919050565b600060208201905081810360008301526137d581613799565b9050919050565b60006137e782612367565b91507fffffffffffffffffffffffffffffffffffffffffffffffffffffffffffffffff820361381957613818613138565b5b600182019050919050565b600061382f82612367565b915061383a83612367565b925082820390508181111561385257613851613138565b5b92915050565b7f4e487b7100000000000000000000000000000000000000000000000000000000600052603260045260246000fd5b600060608201905061389c6000830186612730565b6138a96020830185612491565b6138b66040830184612491565b949350505050565b60006138c982612367565b91506138d483612367565b92508282019050808211156138ec576138eb613138565b5b9291505056fea2646970667358221220cbd02f615e420bbe7a29d9fe09ad78e318a3e7503da56390d185aa9c6017c62764736f6c634300081c0033",
  "linkReferences": {},
  "deployedLinkReferences": {}
}