{
  "_format": "hh-sol-artifact-1",
  "contractName": "CO2ken",
  "sourceName": "contracts/CO2ken.sol",
  "abi": [
    {
      "inputs": [],
      "stateMutability": "nonpayable",
      "type": "constructor"
    },
    {
      "inputs": [
        {
          "internalType": "address",
          "name": "spender",
          "type": "address"
        },
        {
          "internalType": "uint256",
          "name": "allowance",
          "type": "uint256"
        },
        {
          "internalType": "uint256",
          "name": "needed",
          "type": "uint256"
        }
      ],
      "name": "ERC20InsufficientAllowance",
      "type": "error"
    },
    {
      "inputs": [
        {
          "internalType": "address",
          "name": "sender",
          "type": "address"
        },
        {
          "internalType": "uint256",
          "name": "balance",
          "type": "uint256"
        },
        {
          "internalType": "uint256",
          "name": "needed",
          "type": "uint256"
        }
      ],
      "name": "ERC20InsufficientBalance",
      "type": "error"
    },
    {
      "inputs": [
        {
          "internalType": "address",
          "name": "approver",
          "type": "address"
        }
      ],
      "name": "ERC20InvalidApprover",
      "type": "error"
    },
    {
      "inputs": [
        {
          "internalType": "address",
          "name": "receiver",
          "type": "address"
        }
      ],
      "name": "ERC20InvalidReceiver",
      "type": "error"
    },
    {
      "inputs": [
        {
          "internalType": "address",
          "name": "sender",
          "type": "address"
        }
      ],
      "name": "ERC20InvalidSender",
      "type": "error"
    },
    {
      "inputs": [
        {
          "internalType": "address",
          "name": "spender",
          "type": "address"
        }
      ],
      "name": "ERC20InvalidSpender",
      "type": "error"
    },
    {
      "inputs": [
        {
          "internalType": "address",
          "name": "owner",
          "type": "address"
        }
      ],
      "name": "OwnableInvalidOwner",
      "type": "error"
    },
    {
      "inputs": [
        {
          "internalType": "address",
          "name": "account",
          "type": "address"
        }
      ],
      "name": "OwnableUnauthorizedAccount",
      "type": "error"
    },
    {
      "anonymous": false,
      "inputs": [
        {
          "indexed": true,
          "internalType": "address",
          "name": "owner",
          "type": "address"
        },
        {
          "indexed": true,
          "internalType": "address",
          "name": "spender",
          "type": "address"
        },
        {
          "indexed": false,
          "internalType": "uint256",
          "name": "value",
          "type": "uint256"
        }
      ],
      "name": "Approval",
      "type": "event"
    },
    {
      "anonymous": false,
      "inputs": [
        {
          "indexed": true,
          "internalType": "address",
          "name": "holder",
          "type": "address"
        },
        {
          "indexed": false,
          "internalType": "bool",
          "name": "verified",
          "type": "bool"
        }
      ],
      "name": "CreditVerified",
      "type": "event"
    },
    {
      "anonymous": false,
      "inputs": [
        {
          "indexed": true,
          "internalType": "address",
          "name": "to",
          "type": "address"
        },
        {
          "indexed": false,
          "internalType": "uint256",
          "name": "amount",
          "type": "uint256"
        },
        {
          "indexed": false,
          "internalType": "string",
          "name": "projectId",
          "type": "string"
        },
        {
          "indexed": false,
          "internalType": "string",
          "name": "vintage",
          "type": "string"
        },
        {
          "indexed": false,
          "internalType": "string",
          "name": "certifier",
          "type": "string"
        }
      ],
      "name": "CreditsMinted",
      "type": "event"
    },
    {
      "anonymous": false,
      "inputs": [
        {
          "indexed": true,
          "internalType": "address",
          "name": "from",
          "type": "address"
        },
        {
          "indexed": false,
          "internalType": "uint256",
          "name": "amount",
          "type": "uint256"
        },
        {
          "indexed": false,
          "internalType": "string",
          "name": "reason",
          "type": "string"
        }
      ],
      "name": "CreditsRetired",
      "type": "event"
    },
    {
      "anonymous": false,
      "inputs": [
        {
          "indexed": true,
          "internalType": "uint256",
          "name": "id",
          "type": "uint256"
        }
      ],
      "name": "ListingCancelled",
      "type": "event"
    },
    {
      "anonymous": false,
      "inputs": [
        {
          "indexed": true,
          "internalType": "uint256",
          "name": "id",
          "type": "uint256"
        },
        {
          "indexed": true,
          "internalType": "address",
          "name": "seller",
          "type": "address"
        },
        {
          "indexed": false,
          "internalType": "uint256",
          "name": "amount",
          "type": "uint256"
        },
        {
          "indexed": false,
          "internalType": "uint256",
          "name": "pricePerToken",
          "type": "uint256"
        }
      ],
      "name": "ListingCreated",
      "type": "event"
    },
    {
      "anonymous": false,
      "inputs": [
        {
          "indexed": true,
          "internalType": "uint256",
          "name": "id",
          "type": "uint256"
        },
        {
          "indexed": true,
          "internalType": "address",
          "name": "buyer",
          "type": "address"
        },
        {
          "indexed": false,
          "internalType": "uint256",
          "name": "amount",
          "type": "uint256"
        },
        {
          "indexed": false,
          "internalType": "uint256",
          "name": "totalPrice",
          "type": "uint256"
        }
      ],
      "name": "ListingPurchased",
      "type": "event"
    },
    {
      "anonymous": false,
      "inputs": [
        {
          "indexed": true,
          "internalType": "address",
          "name": "previousOwner",
          "type": "address"
        },
        {
          "indexed": true,
          "internalType": "address",
          "name": "newOwner",
          "type": "address"
        }
      ],
      "name": "OwnershipTransferred",
      "type": "event"
    },
    {
      "anonymous": false,
      "inputs": [
        {
          "indexed": true,
          "internalType": "address",
          "name": "from",
          "type": "address"
        },
        {
          "indexed": true,
          "internalType": "address",
          "name": "to",
          "type": "address"
        },
        {
          "indexed": false,
          "internalType": "uint256",
          "name": "value",
          "type": "uint256"
        }
      ],
      "name": "Transfer",
      "type": "event"
    },
    {
      "stateMutability": "payable",
      "type": "fallback"
    },
    {
      "inputs": [
        {
          "internalType": "address",
          "name": "owner",
          "type": "address"
        },
        {
          "internalType": "address",
          "name": "spender",
          "type": "address"
        }
      ],
      "name": "allowance",
      "outputs": [
        {
          "internalType": "uint256",
          "name": "",
          "type": "uint256"
        }
      ],
      "stateMutability": "view",
      "type": "function"
    },
    {
      "inputs": [
        {
          "internalType": "address",
          "name": "spender",
          "type": "address"
        },
        {
          "internalType": "uint256",
          "name": "value",
          "type": "uint256"
        }
      ],
      "name": "approve",
      "outputs": [
        {
          "internalType": "bool",
          "name": "",
          "type": "bool"
        }
      ],
      "stateMutability": "nonpayable",
      "type": "function"
    },
    {
      "inputs": [
        {
          "internalType": "address",
          "name": "account",
          "type": "address"
        }
      ],
      "name": "balanceOf",
      "outputs": [
        {
          "internalType": "uint256",
          "name": "",
          "type": "uint256"
        }
      ],
      "stateMutability": "view",
      "type": "function"
    },
    {
      "inputs": [
        {
          "internalType": "uint256",
          "name": "listingId",
          "type": "uint256"
        }
      ],
      "name": "buyListing",
      "outputs": [],
      "stateMutability": "payable",
      "type": "function"
    },
    {
      "inputs": [
        {
          "internalType": "uint256",
          "name": "energy",
          "type": "uint256"
        }
      ],
      "name": "calculateCarbonFootprint",
      "outputs": [
        {
          "internalType": "uint256",
          "name": "",
          "type": "uint256"
        }
      ],
      "stateMutability": "pure",
      "type": "function"
    },
    {
      "inputs": [
        {
          "internalType": "uint256",
          "name": "listingId",
          "type": "uint256"
        }
      ],
      "name": "cancelListing",
      "outputs": [],
      "stateMutability": "nonpayable",
      "type": "function"
    },
    {
      "inputs": [
        {
          "internalType": "uint256",
          "name": "amount",
          "type": "uint256"
        },
        {
          "internalType": "uint256",
          "name": "pricePerToken",
          "type": "uint256"
        }
      ],
      "name": "createListing",
      "outputs": [],
      "stateMutability": "nonpayable",
      "type": "function"
    },
    {
      "inputs": [
        {
          "internalType": "address",
          "name": "",
          "type": "address"
        }
      ],
      "name": "creditInfo",
      "outputs": [
        {
          "internalType": "string",
          "name": "projectId",
          "type": "string"
        },
        {
          "internalType": "string",
          "name": "vintage",
          "type": "string"
        },
        {
          "internalType": "string",
          "name": "certifier",
          "type": "string"
        },
        {
          "internalType": "bool",
          "name": "verified",
          "type": "bool"
        }
      ],
      "stateMutability": "view",
      "type": "function"
    },
    {
      "inputs": [],
      "name": "decimals",
      "outputs": [
        {
          "internalType": "uint8",
          "name": "",
          "type": "uint8"
        }
      ],
      "stateMutability": "pure",
      "type": "function"
    },
    {
      "inputs": [
        {
          "internalType": "uint256",
          "name": "start",
          "type": "uint256"
        },
        {
          "internalType": "uint256",
          "name": "end",
          "type": "uint256"
        }
      ],
      "name": "getActiveListings",
      "outputs": [
        {
          "internalType": "uint256[]",
          "name": "ids",
          "type": "uint256[]"
        },
        {
          "internalType": "address[]",
          "name": "sellers",
          "type": "address[]"
        },
        {
          "internalType": "uint256[]",
          "name": "amounts",
          "type": "uint256[]"
        },
        {
          "internalType": "uint256[]",
          "name": "prices",
          "type": "uint256[]"
        },
        {
          "internalType": "bool[]",
          "name": "actives",
          "type": "bool[]"
        }
      ],
      "stateMutability": "view",
      "type": "function"
    },
    {
      "inputs": [
        {
          "internalType": "uint256",
          "name": "",
          "type": "uint256"
        }
      ],
      "name": "listings",
      "outputs": [
        {
          "internalType": "uint256",
          "name": "id",
          "type": "uint256"
        },
        {
          "internalType": "address",
          "name": "seller",
          "type": "address"
        },
        {
          "internalType": "uint256",
          "name": "amount",
          "type": "uint256"
        },
        {
          "internalType": "uint256",
          "name": "pricePerToken",
          "type": "uint256"
        },
        {
          "internalType": "bool",
          "name": "active",
          "type": "bool"
        }
      ],
      "stateMutability": "view",
      "type": "function"
    },
    {
      "inputs": [
        {
          "internalType": "address",
          "name": "to",
          "type": "address"
        },
        {
          "internalType": "uint256",
          "name": "amount",
          "type": "uint256"
        },
        {
          "internalType": "string",
          "name": "projectId",
          "type": "string"
        },
        {
          "internalType": "string",
          "name": "vintage",
          "type": "string"
        },
        {
          "internalType": "string",
          "name": "certifier",
          "type": "string"
        }
      ],
      "name": "mintCredits",
      "outputs": [],
      "stateMutability": "nonpayable",
      "type": "function"
    },
    {
      "inputs": [],
      "name": "name",
      "outputs": [
        {
          "internalType": "string",
          "name": "",
          "type": "string"
        }
      ],
      "stateMutability": "view",
      "type": "function"
    },
    {
      "inputs": [],
      "name": "nextListingId",
      "outputs": [
        {
          "internalType": "uint256",
          "name": "",
          "type": "uint256"
        }
      ],
      "stateMutability": "view",
      "type": "function"
    },
    {
      "inputs": [],
      "name": "owner",
      "outputs": [
        {
          "internalType": "address",
          "name": "",
          "type": "address"
        }
      ],
      "stateMutability": "view",
      "type": "function"
    },
    {
      "inputs": [],
      "name": "renounceOwnership",
      "outputs": [],
      "stateMutability": "nonpayable",
      "type": "function"
    },
    {
      "inputs": [
        {
          "internalType": "address payable",
          "name": "to",
          "type": "address"
        },
        {
          "internalType": "uint256",
          "name": "amount",
          "type": "uint256"
        }
      ],
      "name": "rescueETH",
      "outputs": [],
      "stateMutability": "nonpayable",
      "type": "function"
    },
    {
      "inputs": [
        {
          "internalType": "uint256",
          "name": "amount",
          "type": "uint256"
        },
        {
          "internalType": "string",
          "name": "reason",
          "type": "string"
        }
      ],
      "name": "retireCredits",
      "outputs": [],
      "stateMutability": "nonpayable",
      "type": "function"
    },
    {
      "inputs": [],
      "name": "symbol",
      "outputs": [
        {
          "internalType": "string",
          "name": "",
          "type": "string"
        }
      ],
      "stateMutability": "view",
      "type": "function"
    },
    {
      "inputs": [],
      "name": "totalSupply",
      "outputs": [
        {
          "internalType": "uint256",
          "name": "",
          "type": "uint256"
        }
      ],
      "stateMutability": "view",
      "type": "function"
    },
    {
      "inputs": [
        {
          "internalType": "address",
          "name": "to",
          "type": "address"
        },
        {
          "internalType": "uint256",
          "name": "value",
          "type": "uint256"
        }
      ],
      "name": "transfer",
      "outputs": [
        {
          "internalType": "bool",
          "name": "",
          "type": "bool"
        }
      ],
      "stateMutability": "nonpayable",
      "type": "function"
    },
    {
      "inputs": [
        {
          "internalType": "address",
          "name": "from",
          "type": "address"
        },
        {
          "internalType": "address",
          "name": "to",
          "type": "address"
        },
        {
          "internalType": "uint256",
          "name": "value",
          "type": "uint256"
        }
      ],
      "name": "transferFrom",
      "outputs": [
        {
          "internalType": "bool",
          "name": "",
          "type": "bool"
        }
      ],
      "stateMutability": "nonpayable",
      "type": "function"
    },
    {
      "inputs": [
        {
          "internalType": "address",
          "name": "newOwner",
          "type": "address"
        }
      ],
      "name": "transferOwnership",
      "outputs": [],
      "stateMutability": "nonpayable",
      "type": "function"
    },
    {
      "inputs": [
        {
          "internalType": "address",
          "name": "holder",
          "type": "address"
        },
        {
          "internalType": "bool",
          "name": "isVerified",
          "type": "bool"
        }
      ],
      "name": "verifyCredit",
      "outputs": [],
      "stateMutability": "nonpayable",
      "type": "function"
    },
    {
      "stateMutability": "payable",
      "type": "receive"
    }
  ],
  "bytecode": "0x608060405234801561001057600080fd5b50336040518060400160405280600d81526020017f436172626f6e20437265646974000000000000000000000000000000000000008152506040518060400160405280600481526020017f53434f3200000000000000000000000000000000000000000000000000000000815250816003908161008d919061043d565b50806004908161009d919061043d565b505050600073ffffffffffffffffffffffffffffffffffffffff168173ffffffffffffffffffffffffffffffffffffffff16036101125760006040517f1e4fbdf70000000000000000000000000000000000000000000000000000000081526004016101099190610550565b60405180910390fd5b6101218161012760201b60201c565b5061056b565b6000600560009054906101000a900473ffffffffffffffffffffffffffffffffffffffff16905081600560006101000a81548173ffffffffffffffffffffffffffffffffffffffff021916908373ffffffffffffffffffffffffffffffffffffffff1602179055508173ffffffffffffffffffffffffffffffffffffffff168173ffffffffffffffffffffffffffffffffffffffff167f8be0079c531659141344cd1fd0a4f28419497f9722a3daafe3b4186f6b6457e060405160405180910390a35050565b600081519050919050565b7f4e487b7100000000000000000000000000000000000000000000000000000000600052604160045260246000fd5b7f4e487b7100000000000000000000000000000000000000000000000000000000600052602260045260246000fd5b6000600282049050600182168061026e57607f821691505b60208210810361028157610280610227565b5b50919050565b60008190508160005260206000209050919050565b60006020601f8301049050919050565b600082821b905092915050565b6000600883026102e97fffffffffffffffffffffffffffffffffffffffffffffffffffffffffffffffff826102ac565b6102f386836102ac565b95508019841693508086168417925050509392505050565b6000819050919050565b6000819050919050565b600061033a6103356103308461030b565b610315565b61030b565b9050919050565b6000819050919050565b6103548361031f565b61036861036082610341565b8484546102b9565b825550505050565b600090565b61037d610370565b61038881848461034b565b505050565b5b818110156103ac576103a1600082610375565b60018101905061038e565b5050565b601f8211156103f1576103c281610287565b6103cb8461029c565b810160208510156103da578190505b6103ee6103e68561029c565b83018261038d565b50505b505050565b600082821c905092915050565b6000610414600019846008026103f6565b1980831691505092915050565b600061042d8383610403565b9150826002028217905092915050565b610446826101ed565b67ffffffffffffffff81111561045f5761045e6101f8565b5b6104698254610256565b6104748282856103b0565b600060209050601f8311600181146104a75760008415610495578287015190505b61049f8582610421565b865550610507565b601f1984166104b586610287565b60005b828110156104dd578489015182556001820191506020850194506020810190506104b8565b868310156104fa57848901516104f6601f891682610403565b8355505b6001600288020188555050505b505050505050565b600073ffffffffffffffffffffffffffffffffffffffff82169050919050565b600061053a8261050f565b9050919050565b61054a8161052f565b82525050565b60006020820190506105656000830184610541565b92915050565b6134708061057a6000396000f3fe60806040526004361061014f5760003560e01c80639424d0e2116100b6578063bf36a1681161006f578063bf36a16814610471578063c128b231146104ae578063d5b09cb7146104ef578063dd62ed3e1461052f578063de74e57b1461056c578063f2fde38b146105ad57610150565b80639424d0e21461036357806395d89b411461038c578063a45d4ff0146103b7578063a79123a9146103e0578063a9059cbb14610409578063aaccf1ec1461044657610150565b8063313ce56711610108578063313ce567146102745780634884f4591461029f57806370a08231146102bb578063715018a6146102f857806389b9ac7f1461030f5780638da5cb5b1461033857610150565b806306fdde0314610152578063095ea7b31461017d578063099a04e5146101ba57806318160ddd146101e357806323b872dd1461020e578063305a67a81461024b57610150565b5b005b34801561015e57600080fd5b506101676105d6565b6040516101749190612171565b60405180910390f35b34801561018957600080fd5b506101a4600480360381019061019f919061223b565b610668565b6040516101b19190612296565b60405180910390f35b3480156101c657600080fd5b506101e160048036038101906101dc91906122ef565b61068b565b005b3480156101ef57600080fd5b506101f8610744565b604051610205919061233e565b60405180910390f35b34801561021a57600080fd5b5061023560048036038101906102309190612359565b61074e565b6040516102429190612296565b60405180910390f35b34801561025757600080fd5b50610272600480360381019061026d91906123ac565b61077d565b005b34801561028057600080fd5b50610289610935565b60405161029691906123f5565b60405180910390f35b6102b960048036038101906102b491906123ac565b61093e565b005b3480156102c757600080fd5b506102e260048036038101906102dd9190612410565b610b57565b6040516102ef919061233e565b60405180910390f35b34801561030457600080fd5b5061030d610b9f565b005b34801561031b57600080fd5b5061033660048036038101906103319190612572565b610bb3565b005b34801561034457600080fd5b5061034d610c54565b60405161035a91906125dd565b60405180910390f35b34801561036f57600080fd5b5061038a60048036038101906103859190612624565b610c7e565b005b34801561039857600080fd5b506103a1610d32565b6040516103ae9190612171565b60405180910390f35b3480156103c357600080fd5b506103de60048036038101906103d99190612664565b610dc4565b005b3480156103ec57600080fd5b5061040760048036038101906104029190612733565b610fab565b005b34801561041557600080fd5b50610430600480360381019061042b919061223b565b6111d5565b60405161043d9190612296565b60405180910390f35b34801561045257600080fd5b5061045b6111f8565b604051610468919061233e565b60405180910390f35b34801561047d57600080fd5b50610498600480360381019061049391906123ac565b6111fe565b6040516104a5919061233e565b60405180910390f35b3480156104ba57600080fd5b506104d560048036038101906104d09190612733565b611214565b6040516104e69594939291906129ad565b60405180910390f35b3480156104fb57600080fd5b5061051660048036038101906105119190612410565b6115ac565b6040516105269493929190612a23565b60405180910390f35b34801561053b57600080fd5b5061055660048036038101906105519190612a7d565b611781565b604051610563919061233e565b60405180910390f35b34801561057857600080fd5b50610593600480360381019061058e91906123ac565b611808565b6040516105a4959493929190612abd565b60405180910390f35b3480156105b957600080fd5b506105d460048036038101906105cf9190612410565b61186b565b005b6060600380546105e590612b3f565b80601f016020809104026020016040519081016040528092919081815260200182805461061190612b3f565b801561065e5780601f106106335761010080835404028352916020019161065e565b820191906000526020600020905b81548152906001019060200180831161064157829003601f168201915b5050505050905090565b6000806106736118f1565b90506106808185856118f9565b600191505092915050565b61069361190b565b60008273ffffffffffffffffffffffffffffffffffffffff16826040516106b990612ba1565b60006040518083038185875af1925050503d80600081146106f6576040519150601f19603f3d011682016040523d82523d6000602084013e6106fb565b606091505b505090508061073f576040517f08c379a000000000000000000000000000000000000000000000000000000000815260040161073690612c02565b60405180910390fd5b505050565b6000600254905090565b6000806107596118f1565b9050610766858285611992565b610771858585611a27565b60019150509392505050565b60006008600083815260200190815260200160002090508060040160009054906101000a900460ff166107e5576040517f08c379a00000000000000000000000000000000000000000000000000000000081526004016107dc90612c6e565b60405180910390fd5b3373ffffffffffffffffffffffffffffffffffffffff168160010160009054906101000a900473ffffffffffffffffffffffffffffffffffffffff1673ffffffffffffffffffffffffffffffffffffffff1614806108755750610846610c54565b73ffffffffffffffffffffffffffffffffffffffff163373ffffffffffffffffffffffffffffffffffffffff16145b6108b4576040517f08c379a00000000000000000000000000000000000000000000000000000000081526004016108ab90612cda565b60405180910390fd5b60008160040160006101000a81548160ff021916908315150217905550610904308260010160009054906101000a900473ffffffffffffffffffffffffffffffffffffffff168360020154611a27565b817f411aee90354c51b1b04cd563fcab2617142a9d50da19232d888547c8a1b7fd8a60405160405180910390a25050565b60006006905090565b60006008600083815260200190815260200160002090508060040160009054906101000a900460ff166109a6576040517f08c379a000000000000000000000000000000000000000000000000000000000815260040161099d90612c6e565b60405180910390fd5b6000816003015482600201546109bc9190612d29565b9050803414610a00576040517f08c379a00000000000000000000000000000000000000000000000000000000081526004016109f790612db7565b60405180910390fd5b60008260040160006101000a81548160ff021916908315150217905550610a2c30338460020154611a27565b60008260010160009054906101000a900473ffffffffffffffffffffffffffffffffffffffff1673ffffffffffffffffffffffffffffffffffffffff1634604051610a7690612ba1565b60006040518083038185875af1925050503d8060008114610ab3576040519150601f19603f3d011682016040523d82523d6000602084013e610ab8565b606091505b5050905080610afc576040517f08c379a0000000000000000000000000000000000000000000000000000000008152600401610af390612e23565b60405180910390fd5b3373ffffffffffffffffffffffffffffffffffffffff16847f0db6cd6881fc0453b2d01f52eb5a16417707659f245732abc10f847426e3525d856002015485604051610b49929190612e43565b60405180910390a350505050565b60008060008373ffffffffffffffffffffffffffffffffffffffff1673ffffffffffffffffffffffffffffffffffffffff168152602001908152602001600020549050919050565b610ba761190b565b610bb16000611b1b565b565b60008211610bf6576040517f08c379a0000000000000000000000000000000000000000000000000000000008152600401610bed90612eb8565b60405180910390fd5b610c003383611be1565b3373ffffffffffffffffffffffffffffffffffffffff167f554ae59b59830600d0638ca7a742c4d11a7030f32a6885c3f2bea19ca1d26ecb8383604051610c48929190612ed8565b60405180910390a25050565b6000600560009054906101000a900473ffffffffffffffffffffffffffffffffffffffff16905090565b610c8661190b565b80600660008473ffffffffffffffffffffffffffffffffffffffff1673ffffffffffffffffffffffffffffffffffffffff16815260200190815260200160002060030160006101000a81548160ff0219169083151502179055508173ffffffffffffffffffffffffffffffffffffffff167f336e0c64aa3462337a47f5df109e1cd00c7872fa93024dfe40ffab44058a359582604051610d269190612296565b60405180910390a25050565b606060048054610d4190612b3f565b80601f0160208091040260200160405190810160405280929190818152602001828054610d6d90612b3f565b8015610dba5780601f10610d8f57610100808354040283529160200191610dba565b820191906000526020600020905b815481529060010190602001808311610d9d57829003601f168201915b5050505050905090565b610dcc61190b565b600073ffffffffffffffffffffffffffffffffffffffff168573ffffffffffffffffffffffffffffffffffffffff1603610e3b576040517f08c379a0000000000000000000000000000000000000000000000000000000008152600401610e3290612f54565b60405180910390fd5b60008411610e7e576040517f08c379a0000000000000000000000000000000000000000000000000000000008152600401610e7590612eb8565b60405180910390fd5b610e888585611c63565b604051806080016040528084815260200183815260200182815260200160001515815250600660008773ffffffffffffffffffffffffffffffffffffffff1673ffffffffffffffffffffffffffffffffffffffff1681526020019081526020016000206000820151816000019081610f009190613120565b506020820151816001019081610f169190613120565b506040820151816002019081610f2c9190613120565b5060608201518160030160006101000a81548160ff0219169083151502179055509050508473ffffffffffffffffffffffffffffffffffffffff167f5e8e4cf0cab3761fab0519ef540368fc196a0f398640bbe084a573b4c3d8cf5885858585604051610f9c94939291906131f2565b60405180910390a25050505050565b81610fb533610b57565b1015610ff6576040517f08c379a0000000000000000000000000000000000000000000000000000000008152600401610fed90613298565b60405180910390fd5b60008211611039576040517f08c379a000000000000000000000000000000000000000000000000000000000815260040161103090612eb8565b60405180910390fd5b6000811161107c576040517f08c379a000000000000000000000000000000000000000000000000000000000815260040161107390613304565b60405180910390fd5b611087333084611a27565b6040518060a0016040528060075481526020013373ffffffffffffffffffffffffffffffffffffffff168152602001838152602001828152602001600115158152506008600060075481526020019081526020016000206000820151816000015560208201518160010160006101000a81548173ffffffffffffffffffffffffffffffffffffffff021916908373ffffffffffffffffffffffffffffffffffffffff160217905550604082015181600201556060820151816003015560808201518160040160006101000a81548160ff0219169083151502179055509050503373ffffffffffffffffffffffffffffffffffffffff166007547f12dc294b81a709d694b1337a350a12a00076c19a77a25aab67a5f0c07e0f164d84846040516111b1929190612e43565b60405180910390a3600760008154809291906111cc90613324565b91905055505050565b6000806111e06118f1565b90506111ed818585611a27565b600191505092915050565b60075481565b600060e98261120d9190612d29565b9050919050565b6060806060806060868611158061122c575060075486115b1561125257606080606080606084848484849950995099509950995050505050506115a2565b60008787611260919061336c565b90508067ffffffffffffffff81111561127c5761127b612447565b5b6040519080825280602002602001820160405280156112aa5781602001602082028036833780820191505090505b5095508067ffffffffffffffff8111156112c7576112c6612447565b5b6040519080825280602002602001820160405280156112f55781602001602082028036833780820191505090505b5094508067ffffffffffffffff81111561131257611311612447565b5b6040519080825280602002602001820160405280156113405781602001602082028036833780820191505090505b5093508067ffffffffffffffff81111561135d5761135c612447565b5b60405190808252806020026020018201604052801561138b5781602001602082028036833780820191505090505b5092508067ffffffffffffffff8111156113a8576113a7612447565b5b6040519080825280602002602001820160405280156113d65781602001602082028036833780820191505090505b50915060008890505b8781101561159f576000600860008381526020019081526020016000206040518060a0016040529081600082015481526020016001820160009054906101000a900473ffffffffffffffffffffffffffffffffffffffff1673ffffffffffffffffffffffffffffffffffffffff1673ffffffffffffffffffffffffffffffffffffffff16815260200160028201548152602001600382015481526020016004820160009054906101000a900460ff161515151581525050905060008a836114a6919061336c565b905081600001518982815181106114c0576114bf6133a0565b5b60200260200101818152505081602001518882815181106114e4576114e36133a0565b5b602002602001019073ffffffffffffffffffffffffffffffffffffffff16908173ffffffffffffffffffffffffffffffffffffffff16815250508160400151878281518110611536576115356133a0565b5b602002602001018181525050816060015186828151811061155a576115596133a0565b5b602002602001018181525050816080015185828151811061157e5761157d6133a0565b5b602002602001019015159081151581525050505080806001019150506113df565b50505b9295509295909350565b60066020528060005260406000206000915090508060000180546115cf90612b3f565b80601f01602080910402602001604051908101604052809291908181526020018280546115fb90612b3f565b80156116485780601f1061161d57610100808354040283529160200191611648565b820191906000526020600020905b81548152906001019060200180831161162b57829003601f168201915b50505050509080600101805461165d90612b3f565b80601f016020809104026020016040519081016040528092919081815260200182805461168990612b3f565b80156116d65780601f106116ab576101008083540402835291602001916116d6565b820191906000526020600020905b8154815290600101906020018083116116b957829003601f168201915b5050505050908060020180546116eb90612b3f565b80601f016020809104026020016040519081016040528092919081815260200182805461171790612b3f565b80156117645780601f1061173957610100808354040283529160200191611764565b820191906000526020600020905b81548152906001019060200180831161174757829003601f168201915b5050505050908060030160009054906101000a900460ff16905084565b6000600160008473ffffffffffffffffffffffffffffffffffffffff1673ffffffffffffffffffffffffffffffffffffffff16815260200190815260200160002060008373ffffffffffffffffffffffffffffffffffffffff1673ffffffffffffffffffffffffffffffffffffffff16815260200190815260200160002054905092915050565b60086020528060005260406000206000915090508060000154908060010160009054906101000a900473ffffffffffffffffffffffffffffffffffffffff16908060020154908060030154908060040160009054906101000a900460ff16905085565b61187361190b565b600073ffffffffffffffffffffffffffffffffffffffff168173ffffffffffffffffffffffffffffffffffffffff16036118e55760006040517f1e4fbdf70000000000000000000000000000000000000000000000000000000081526004016118dc91906125dd565b60405180910390fd5b6118ee81611b1b565b50565b600033905090565b6119068383836001611ce5565b505050565b6119136118f1565b73ffffffffffffffffffffffffffffffffffffffff16611931610c54565b73ffffffffffffffffffffffffffffffffffffffff1614611990576119546118f1565b6040517f118cdaa700000000000000000000000000000000000000000000000000000000815260040161198791906125dd565b60405180910390fd5b565b600061199e8484611781565b90507fffffffffffffffffffffffffffffffffffffffffffffffffffffffffffffffff811015611a215781811015611a11578281836040517ffb8f41b2000000000000000000000000000000000000000000000000000000008152600401611a08939291906133cf565b60405180910390fd5b611a2084848484036000611ce5565b5b50505050565b600073ffffffffffffffffffffffffffffffffffffffff168373ffffffffffffffffffffffffffffffffffffffff1603611a995760006040517f96c6fd1e000000000000000000000000000000000000000000000000000000008152600401611a9091906125dd565b60405180910390fd5b600073ffffffffffffffffffffffffffffffffffffffff168273ffffffffffffffffffffffffffffffffffffffff1603611b0b5760006040517fec442f05000000000000000000000000000000000000000000000000000000008152600401611b0291906125dd565b60405180910390fd5b611b16838383611ebc565b505050565b6000600560009054906101000a900473ffffffffffffffffffffffffffffffffffffffff16905081600560006101000a81548173ffffffffffffffffffffffffffffffffffffffff021916908373ffffffffffffffffffffffffffffffffffffffff1602179055508173ffffffffffffffffffffffffffffffffffffffff168173ffffffffffffffffffffffffffffffffffffffff167f8be0079c531659141344cd1fd0a4f28419497f9722a3daafe3b4186f6b6457e060405160405180910390a35050565b600073ffffffffffffffffffffffffffffffffffffffff168273ffffffffffffffffffffffffffffffffffffffff1603611c535760006040517f96c6fd1e000000000000000000000000000000000000000000000000000000008152600401611c4a91906125dd565b60405180910390fd5b611c5f82600083611ebc565b5050565b600073ffffffffffffffffffffffffffffffffffffffff168273ffffffffffffffffffffffffffffffffffffffff1603611cd55760006040517fec442f05000000000000000000000000000000000000000000000000000000008152600401611ccc91906125dd565b60405180910390fd5b611ce160008383611ebc565b5050565b600073ffffffffffffffffffffffffffffffffffffffff168473ffffffffffffffffffffffffffffffffffffffff1603611d575760006040517fe602df05000000000000000000000000000000000000000000000000000000008152600401611d4e91906125dd565b60405180910390fd5b600073ffffffffffffffffffffffffffffffffffffffff168373ffffffffffffffffffffffffffffffffffffffff1603611dc95760006040517f94280d62000000000000000000000000000000000000000000000000000000008152600401611dc091906125dd565b60405180910390fd5b81600160008673ffffffffffffffffffffffffffffffffffffffff1673ffffffffffffffffffffffffffffffffffffffff16815260200190815260200160002060008573ffffffffffffffffffffffffffffffffffffffff1673ffffffffffffffffffffffffffffffffffffffff168152602001908152602001600020819055508015611eb6578273ffffffffffffffffffffffffffffffffffffffff168473ffffffffffffffffffffffffffffffffffffffff167f8c5be1e5ebec7d5bd14f71427d1e84f3dd0314c0f7b2291e5b200ac8c7c3b92584604051611ead919061233e565b60405180910390a35b50505050565b600073ffffffffffffffffffffffffffffffffffffffff168373ffffffffffffffffffffffffffffffffffffffff1603611f0e578060026000828254611f029190613406565b92505081905550611fe1565b60008060008573ffffffffffffffffffffffffffffffffffffffff1673ffffffffffffffffffffffffffffffffffffffff16815260200190815260200160002054905081811015611f9a578381836040517fe450d38c000000000000000000000000000000000000000000000000000000008152600401611f91939291906133cf565b60405180910390fd5b8181036000808673ffffffffffffffffffffffffffffffffffffffff1673ffffffffffffffffffffffffffffffffffffffff16815260200190815260200160002081905550505b600073ffffffffffffffffffffffffffffffffffffffff168273ffffffffffffffffffffffffffffffffffffffff160361202a5780600260008282540392505081905550612077565b806000808473ffffffffffffffffffffffffffffffffffffffff1673ffffffffffffffffffffffffffffffffffffffff168152602001908152602001600020600082825401925050819055505b8173ffffffffffffffffffffffffffffffffffffffff168373ffffffffffffffffffffffffffffffffffffffff167fddf252ad1be2c89b69c2b068fc378daa952ba7f163c4a11628f55a4df523b3ef836040516120d4919061233e565b60405180910390a3505050565b600081519050919050565b600082825260208201905092915050565b60005b8381101561211b578082015181840152602081019050612100565b60008484015250505050565b6000601f19601f8301169050919050565b6000612143826120e1565b61214d81856120ec565b935061215d8185602086016120fd565b61216681612127565b840191505092915050565b6000602082019050818103600083015261218b8184612138565b905092915050565b6000604051905090565b600080fd5b600080fd5b600073ffffffffffffffffffffffffffffffffffffffff82169050919050565b60006121d2826121a7565b9050919050565b6121e2816121c7565b81146121ed57600080fd5b50565b6000813590506121ff816121d9565b92915050565b6000819050919050565b61221881612205565b811461222357600080fd5b50565b6000813590506122358161220f565b92915050565b600080604083850312156122525761225161219d565b5b6000612260858286016121f0565b925050602061227185828601612226565b9150509250929050565b60008115159050919050565b6122908161227b565b82525050565b60006020820190506122ab6000830184612287565b92915050565b60006122bc826121a7565b9050919050565b6122cc816122b1565b81146122d757600080fd5b50565b6000813590506122e9816122c3565b92915050565b600080604083850312156123065761230561219d565b5b6000612314858286016122da565b925050602061232585828601612226565b9150509250929050565b61233881612205565b82525050565b6000602082019050612353600083018461232f565b92915050565b6000806000606084860312156123725761237161219d565b5b6000612380868287016121f0565b9350506020612391868287016121f0565b92505060406123a286828701612226565b9150509250925092565b6000602082840312156123c2576123c161219d565b5b60006123d084828501612226565b91505092915050565b600060ff82169050919050565b6123ef816123d9565b82525050565b600060208201905061240a60008301846123e6565b92915050565b6000602082840312156124265761242561219d565b5b6000612434848285016121f0565b91505092915050565b600080fd5b600080fd5b7f4e487b7100000000000000000000000000000000000000000000000000000000600052604160045260246000fd5b61247f82612127565b810181811067ffffffffffffffff8211171561249e5761249d612447565b5b80604052505050565b60006124b1612193565b90506124bd8282612476565b919050565b600067ffffffffffffffff8211156124dd576124dc612447565b5b6124e682612127565b9050602081019050919050565b82818337600083830152505050565b6000612515612510846124c2565b6124a7565b90508281526020810184848401111561253157612530612442565b5b61253c8482856124f3565b509392505050565b600082601f8301126125595761255861243d565b5b8135612569848260208601612502565b91505092915050565b600080604083850312156125895761258861219d565b5b600061259785828601612226565b925050602083013567ffffffffffffffff8111156125b8576125b76121a2565b5b6125c485828601612544565b9150509250929050565b6125d7816121c7565b82525050565b60006020820190506125f260008301846125ce565b92915050565b6126018161227b565b811461260c57600080fd5b50565b60008135905061261e816125f8565b92915050565b6000806040838503121561263b5761263a61219d565b5b6000612649858286016121f0565b925050602061265a8582860161260f565b9150509250929050565b600080600080600060a086880312156126805761267f61219d565b5b600061268e888289016121f0565b955050602061269f88828901612226565b945050604086013567ffffffffffffffff8111156126c0576126bf6121a2565b5b6126cc88828901612544565b935050606086013567ffffffffffffffff8111156126ed576126ec6121a2565b5b6126f988828901612544565b925050608086013567ffffffffffffffff81111561271a576127196121a2565b5b61272688828901612544565b9150509295509295909350565b6000806040838503121561274a5761274961219d565b5b600061275885828601612226565b925050602061276985828601612226565b9150509250929050565b600081519050919050565b600082825260208201905092915050565b6000819050602082019050919050565b6127a881612205565b82525050565b60006127ba838361279f565b60208301905092915050565b6000602082019050919050565b60006127de82612773565b6127e8818561277e565b93506127f38361278f565b8060005b8381101561282457815161280b88826127ae565b9750612816836127c6565b9250506001810190506127f7565b5085935050505092915050565b600081519050919050565b600082825260208201905092915050565b6000819050602082019050919050565b612866816121c7565b82525050565b6000612878838361285d565b60208301905092915050565b6000602082019050919050565b600061289c82612831565b6128a6818561283c565b93506128b18361284d565b8060005b838110156128e25781516128c9888261286c565b97506128d483612884565b9250506001810190506128b5565b5085935050505092915050565b600081519050919050565b600082825260208201905092915050565b6000819050602082019050919050565b6129248161227b565b82525050565b6000612936838361291b565b60208301905092915050565b6000602082019050919050565b600061295a826128ef565b61296481856128fa565b935061296f8361290b565b8060005b838110156129a0578151612987888261292a565b975061299283612942565b925050600181019050612973565b5085935050505092915050565b600060a08201905081810360008301526129c781886127d3565b905081810360208301526129db8187612891565b905081810360408301526129ef81866127d3565b90508181036060830152612a0381856127d3565b90508181036080830152612a17818461294f565b90509695505050505050565b60006080820190508181036000830152612a3d8187612138565b90508181036020830152612a518186612138565b90508181036040830152612a658185612138565b9050612a746060830184612287565b95945050505050565b60008060408385031215612a9457612a9361219d565b5b6000612aa2858286016121f0565b9250506020612ab3858286016121f0565b9150509250929050565b600060a082019050612ad2600083018861232f565b612adf60208301876125ce565b612aec604083018661232f565b612af9606083018561232f565b612b066080830184612287565b9695505050505050565b7f4e487b7100000000000000000000000000000000000000000000000000000000600052602260045260246000fd5b60006002820490506001821680612b5757607f821691505b602082108103612b6a57612b69612b10565b5b50919050565b600081905092915050565b50565b6000612b8b600083612b70565b9150612b9682612b7b565b600082019050919050565b6000612bac82612b7e565b9150819050919050565b7f526573637565206661696c656400000000000000000000000000000000000000600082015250565b6000612bec600d836120ec565b9150612bf782612bb6565b602082019050919050565b60006020820190508181036000830152612c1b81612bdf565b9050919050565b7f4c697374696e67206e6f74206163746976650000000000000000000000000000600082015250565b6000612c586012836120ec565b9150612c6382612c22565b602082019050919050565b60006020820190508181036000830152612c8781612c4b565b9050919050565b7f4e6f7420617574686f72697a6564000000000000000000000000000000000000600082015250565b6000612cc4600e836120ec565b9150612ccf82612c8e565b602082019050919050565b60006020820190508181036000830152612cf381612cb7565b9050919050565b7f4e487b7100000000000000000000000000000000000000000000000000000000600052601160045260246000fd5b6000612d3482612205565b9150612d3f83612205565b9250828202612d4d81612205565b91508282048414831517612d6457612d63612cfa565b5b5092915050565b7f496e636f72726563742045544820616d6f756e742073656e7400000000000000600082015250565b6000612da16019836120ec565b9150612dac82612d6b565b602082019050919050565b60006020820190508181036000830152612dd081612d94565b9050919050565b7f5061796d656e7420746f2073656c6c6572206661696c65640000000000000000600082015250565b6000612e0d6018836120ec565b9150612e1882612dd7565b602082019050919050565b60006020820190508181036000830152612e3c81612e00565b9050919050565b6000604082019050612e58600083018561232f565b612e65602083018461232f565b9392505050565b7f416d6f756e74206d757374206265203e20300000000000000000000000000000600082015250565b6000612ea26012836120ec565b9150612ead82612e6c565b602082019050919050565b60006020820190508181036000830152612ed181612e95565b9050919050565b6000604082019050612eed600083018561232f565b8181036020830152612eff8184612138565b90509392505050565b7f496e76616c696420616464726573730000000000000000000000000000000000600082015250565b6000612f3e600f836120ec565b9150612f4982612f08565b602082019050919050565b60006020820190508181036000830152612f6d81612f31565b9050919050565b60008190508160005260206000209050919050565b60006020601f8301049050919050565b600082821b905092915050565b600060088302612fd67fffffffffffffffffffffffffffffffffffffffffffffffffffffffffffffffff82612f99565b612fe08683612f99565b95508019841693508086168417925050509392505050565b6000819050919050565b600061301d61301861301384612205565b612ff8565b612205565b9050919050565b6000819050919050565b61303783613002565b61304b61304382613024565b848454612fa6565b825550505050565b600090565b613060613053565b61306b81848461302e565b505050565b5b8181101561308f57613084600082613058565b600181019050613071565b5050565b601f8211156130d4576130a581612f74565b6130ae84612f89565b810160208510156130bd578190505b6130d16130c985612f89565b830182613070565b50505b505050565b600082821c905092915050565b60006130f7600019846008026130d9565b1980831691505092915050565b600061311083836130e6565b9150826002028217905092915050565b613129826120e1565b67ffffffffffffffff81111561314257613141612447565b5b61314c8254612b3f565b613157828285613093565b600060209050601f83116001811461318a5760008415613178578287015190505b6131828582613104565b8655506131ea565b601f19841661319886612f74565b60005b828110156131c05784890151825560018201915060208501945060208101905061319b565b868310156131dd57848901516131d9601f8916826130e6565b8355505b6001600288020188555050505b505050505050565b6000608082019050613207600083018761232f565b81810360208301526132198186612138565b9050818103604083015261322d8185612138565b905081810360608301526132418184612138565b905095945050505050565b7f4e6f7420656e6f75676820637265646974730000000000000000000000000000600082015250565b60006132826012836120ec565b915061328d8261324c565b602082019050919050565b600060208201905081810360008301526132b181613275565b9050919050565b7f5072696365206d757374206265203e2030000000000000000000000000000000600082015250565b60006132ee6011836120ec565b91506132f9826132b8565b602082019050919050565b6000602082019050818103600083015261331d816132e1565b9050919050565b600061332f82612205565b91507fffffffffffffffffffffffffffffffffffffffffffffffffffffffffffffffff820361336157613360612cfa565b5b600182019050919050565b600061337782612205565b915061338283612205565b925082820390508181111561339a57613399612cfa565b5b92915050565b7f4e487b7100000000000000000000000000000000000000000000000000000000600052603260045260246000fd5b60006060820190506133e460008301866125ce565b6133f1602083018561232f565b6133fe604083018461232f565b949350505050565b600061341182612205565b915061341c83612205565b925082820190508082111561343457613433612cfa565b5b9291505056fea2646970667358221220371c549f9e3684a26075075697575b309656ae2f5737d94dfb3d365d1347351464736f6c634300081c0033",
  "linkReferences": {},
  "deployedLinkReferences": {}
}